{
  "_format": "hh-sol-artifact-1",
  "contractName": "ExtendedERC1155",
  "sourceName": "contracts/ExtendedERC1155.sol",
  "abi": [
    {
      "inputs": [
        {
          "internalType": "address",
          "name": "owner_",
          "type": "address"
        },
        {
          "internalType": "address",
          "name": "lnMarketplaceAddress_",
          "type": "address"
        },
        {
          "internalType": "string",
          "name": "uri_",
          "type": "string"
        },
        {
          "internalType": "uint256",
          "name": "royalty_",
          "type": "uint256"
        },
        {
          "internalType": "address",
          "name": "preSalePaymentToken_",
          "type": "address"
        }
      ],
      "stateMutability": "nonpayable",
      "type": "constructor"
    },
    {
      "anonymous": false,
      "inputs": [
        {
          "indexed": true,
          "internalType": "address",
          "name": "account",
          "type": "address"
        },
        {
          "indexed": true,
          "internalType": "address",
          "name": "operator",
          "type": "address"
        },
        {
          "indexed": false,
          "internalType": "bool",
          "name": "approved",
          "type": "bool"
        }
      ],
      "name": "ApprovalForAll",
      "type": "event"
    },
    {
      "anonymous": false,
      "inputs": [
        {
          "indexed": false,
          "internalType": "uint256",
          "name": "_eventId",
          "type": "uint256"
        },
        {
          "indexed": false,
          "internalType": "uint256",
          "name": "_maxTokensPerWallet",
          "type": "uint256"
        },
        {
          "indexed": false,
          "internalType": "uint256",
          "name": "_maxTokensOfSameIdPerWallet",
          "type": "uint256"
        },
        {
          "indexed": false,
          "internalType": "uint256",
          "name": "_startTime",
          "type": "uint256"
        },
        {
          "indexed": false,
          "internalType": "uint256",
          "name": "_endTime",
          "type": "uint256"
        },
        {
          "indexed": false,
          "internalType": "uint256",
          "name": "_maxTokensForTier",
          "type": "uint256"
        },
        {
          "indexed": false,
          "internalType": "uint256",
          "name": "_price",
          "type": "uint256"
        },
        {
          "indexed": false,
          "internalType": "bool",
          "name": "_whiteList",
          "type": "bool"
        }
      ],
      "name": "NewPreSale",
      "type": "event"
    },
    {
      "anonymous": false,
      "inputs": [
        {
          "indexed": true,
          "internalType": "address",
          "name": "previousOwner",
          "type": "address"
        },
        {
          "indexed": true,
          "internalType": "address",
          "name": "newOwner",
          "type": "address"
        }
      ],
      "name": "OwnershipTransferred",
      "type": "event"
    },
    {
      "anonymous": false,
      "inputs": [
        {
          "indexed": true,
          "internalType": "address",
          "name": "operator",
          "type": "address"
        },
        {
          "indexed": true,
          "internalType": "address",
          "name": "from",
          "type": "address"
        },
        {
          "indexed": true,
          "internalType": "address",
          "name": "to",
          "type": "address"
        },
        {
          "indexed": false,
          "internalType": "uint256[]",
          "name": "ids",
          "type": "uint256[]"
        },
        {
          "indexed": false,
          "internalType": "uint256[]",
          "name": "values",
          "type": "uint256[]"
        }
      ],
      "name": "TransferBatch",
      "type": "event"
    },
    {
      "anonymous": false,
      "inputs": [
        {
          "indexed": true,
          "internalType": "address",
          "name": "operator",
          "type": "address"
        },
        {
          "indexed": true,
          "internalType": "address",
          "name": "from",
          "type": "address"
        },
        {
          "indexed": true,
          "internalType": "address",
          "name": "to",
          "type": "address"
        },
        {
          "indexed": false,
          "internalType": "uint256",
          "name": "id",
          "type": "uint256"
        },
        {
          "indexed": false,
          "internalType": "uint256",
          "name": "value",
          "type": "uint256"
        }
      ],
      "name": "TransferSingle",
      "type": "event"
    },
    {
      "anonymous": false,
      "inputs": [
        {
          "indexed": false,
          "internalType": "string",
          "name": "value",
          "type": "string"
        },
        {
          "indexed": true,
          "internalType": "uint256",
          "name": "id",
          "type": "uint256"
        }
      ],
      "name": "URI",
      "type": "event"
    },
    {
      "anonymous": false,
      "inputs": [
        {
          "indexed": false,
          "internalType": "uint256",
          "name": "_eventId",
          "type": "uint256"
        },
        {
          "indexed": false,
          "internalType": "uint256",
          "name": "_maxTokensPerWallet",
          "type": "uint256"
        },
        {
          "indexed": false,
          "internalType": "uint256",
          "name": "_maxTokensOfSameIdPerWallet",
          "type": "uint256"
        },
        {
          "indexed": false,
          "internalType": "uint256",
          "name": "_startTime",
          "type": "uint256"
        },
        {
          "indexed": false,
          "internalType": "uint256",
          "name": "_endTime",
          "type": "uint256"
        },
        {
          "indexed": false,
          "internalType": "uint256",
          "name": "_maxTokensForTier",
          "type": "uint256"
        },
        {
          "indexed": false,
          "internalType": "uint256",
          "name": "_price",
          "type": "uint256"
        },
        {
          "indexed": false,
          "internalType": "bool",
          "name": "_whiteList",
          "type": "bool"
        }
      ],
      "name": "UpdatedPreSale",
      "type": "event"
    },
    {
      "anonymous": false,
      "inputs": [
        {
          "indexed": false,
          "internalType": "string",
          "name": "_uri",
          "type": "string"
        }
      ],
      "name": "UpdatedURI",
      "type": "event"
    },
    {
      "inputs": [
        {
          "internalType": "uint256",
          "name": "eventId",
          "type": "uint256"
        },
        {
          "internalType": "address",
          "name": "buyer",
          "type": "address"
        }
      ],
      "name": "addToWhitelist",
      "outputs": [],
      "stateMutability": "nonpayable",
      "type": "function"
    },
    {
      "inputs": [
        {
          "internalType": "address",
          "name": "account",
          "type": "address"
        },
        {
          "internalType": "uint256",
          "name": "id",
          "type": "uint256"
        }
      ],
      "name": "balanceOf",
      "outputs": [
        {
          "internalType": "uint256",
          "name": "",
          "type": "uint256"
        }
      ],
      "stateMutability": "view",
      "type": "function"
    },
    {
      "inputs": [
        {
          "internalType": "address[]",
          "name": "accounts",
          "type": "address[]"
        },
        {
          "internalType": "uint256[]",
          "name": "ids",
          "type": "uint256[]"
        }
      ],
      "name": "balanceOfBatch",
      "outputs": [
        {
          "internalType": "uint256[]",
          "name": "",
          "type": "uint256[]"
        }
      ],
      "stateMutability": "view",
      "type": "function"
    },
    {
      "inputs": [
        {
          "internalType": "address",
          "name": "buyer",
          "type": "address"
        },
        {
          "internalType": "uint256",
          "name": "tokenId",
          "type": "uint256"
        },
        {
          "internalType": "uint256",
          "name": "amount",
          "type": "uint256"
        },
        {
          "internalType": "uint256",
          "name": "eventId",
          "type": "uint256"
        }
      ],
      "name": "countTokensBought",
      "outputs": [],
      "stateMutability": "nonpayable",
      "type": "function"
    },
    {
      "inputs": [
        {
          "internalType": "uint256",
          "name": "_maxTokensPerWallet",
          "type": "uint256"
        },
        {
          "internalType": "uint256",
          "name": "_maxTokensOfSameIdPerWallet",
          "type": "uint256"
        },
        {
          "internalType": "uint256",
          "name": "_startTime",
          "type": "uint256"
        },
        {
          "internalType": "uint256",
          "name": "_endTime",
          "type": "uint256"
        },
        {
          "internalType": "uint256",
          "name": "_maxTokensForEvent",
          "type": "uint256"
        },
        {
          "internalType": "uint256",
          "name": "_price",
          "type": "uint256"
        },
        {
          "internalType": "bool",
          "name": "_whiteList",
          "type": "bool"
        }
      ],
      "name": "createPreSaleEvent",
      "outputs": [],
      "stateMutability": "nonpayable",
      "type": "function"
    },
    {
      "inputs": [],
      "name": "disableRoyalty",
      "outputs": [],
      "stateMutability": "nonpayable",
      "type": "function"
    },
    {
      "inputs": [],
      "name": "disableRoyaltyDistribution",
      "outputs": [],
      "stateMutability": "nonpayable",
      "type": "function"
    },
    {
      "inputs": [],
      "name": "enableRoyalty",
      "outputs": [],
      "stateMutability": "nonpayable",
      "type": "function"
    },
    {
      "inputs": [],
      "name": "enableRoyaltyDistribution",
      "outputs": [],
      "stateMutability": "nonpayable",
      "type": "function"
    },
    {
      "inputs": [
        {
          "internalType": "bool",
          "name": "_forbidden",
          "type": "bool"
        }
      ],
      "name": "forbidToTradeOnOtherMarketplaces",
      "outputs": [],
      "stateMutability": "nonpayable",
      "type": "function"
    },
    {
      "inputs": [],
      "name": "getDefaultRoyaltyDistribution",
      "outputs": [
        {
          "components": [
            {
              "internalType": "address",
              "name": "collaborator",
              "type": "address"
            },
            {
              "internalType": "uint256",
              "name": "share",
              "type": "uint256"
            }
          ],
          "internalType": "struct RoyaltyDistribution.RoyaltyShare[]",
          "name": "",
          "type": "tuple[]"
        }
      ],
      "stateMutability": "view",
      "type": "function"
    },
    {
      "inputs": [
        {
          "internalType": "address",
          "name": "buyer",
          "type": "address"
        },
        {
          "internalType": "uint256",
          "name": "tokenId",
          "type": "uint256"
        },
        {
          "internalType": "uint256",
          "name": "quantity",
          "type": "uint256"
        },
        {
          "internalType": "uint256",
          "name": "eventId",
          "type": "uint256"
        }
      ],
      "name": "getTokenInfo",
      "outputs": [
        {
          "internalType": "uint256",
          "name": "tokenPrice",
          "type": "uint256"
        },
        {
          "internalType": "address",
          "name": "paymentToken",
          "type": "address"
        },
        {
          "internalType": "bool",
          "name": "availableForBuyer",
          "type": "bool"
        }
      ],
      "stateMutability": "view",
      "type": "function"
    },
    {
      "inputs": [
        {
          "internalType": "uint256",
          "name": "tokenId",
          "type": "uint256"
        }
      ],
      "name": "getTokenRoyaltyDistribution",
      "outputs": [
        {
          "components": [
            {
              "internalType": "address",
              "name": "collaborator",
              "type": "address"
            },
            {
              "internalType": "uint256",
              "name": "share",
              "type": "uint256"
            }
          ],
          "internalType": "struct RoyaltyDistribution.RoyaltyShare[]",
          "name": "",
          "type": "tuple[]"
        }
      ],
      "stateMutability": "view",
      "type": "function"
    },
    {
      "inputs": [],
      "name": "globalRoyalty",
      "outputs": [
        {
          "internalType": "uint256",
          "name": "",
          "type": "uint256"
        }
      ],
      "stateMutability": "view",
      "type": "function"
    },
    {
      "inputs": [],
      "name": "globalRoyaltyEnabled",
      "outputs": [
        {
          "internalType": "bool",
          "name": "",
          "type": "bool"
        }
      ],
      "stateMutability": "view",
      "type": "function"
    },
    {
      "inputs": [
        {
          "internalType": "address",
          "name": "",
          "type": "address"
        },
        {
          "internalType": "uint256",
          "name": "",
          "type": "uint256"
        }
      ],
      "name": "isAddressWhitelisted",
      "outputs": [
        {
          "internalType": "bool",
          "name": "",
          "type": "bool"
        }
      ],
      "stateMutability": "view",
      "type": "function"
    },
    {
      "inputs": [
        {
          "internalType": "address",
          "name": "account",
          "type": "address"
        },
        {
          "internalType": "address",
          "name": "operator",
          "type": "address"
        }
      ],
      "name": "isApprovedForAll",
      "outputs": [
        {
          "internalType": "bool",
          "name": "",
          "type": "bool"
        }
      ],
      "stateMutability": "view",
      "type": "function"
    },
    {
      "inputs": [
        {
          "internalType": "address",
          "name": "to",
          "type": "address"
        },
        {
          "internalType": "uint256",
          "name": "tokenId",
          "type": "uint256"
        },
        {
          "internalType": "uint256",
          "name": "amount",
          "type": "uint256"
        }
      ],
      "name": "lazyMint",
      "outputs": [],
      "stateMutability": "nonpayable",
      "type": "function"
    },
    {
      "inputs": [],
      "name": "lnMarketplaceAddress",
      "outputs": [
        {
          "internalType": "address",
          "name": "",
          "type": "address"
        }
      ],
      "stateMutability": "view",
      "type": "function"
    },
    {
      "inputs": [
        {
          "internalType": "address",
          "name": "account",
          "type": "address"
        },
        {
          "internalType": "uint256",
          "name": "id",
          "type": "uint256"
        },
        {
          "internalType": "uint256",
          "name": "amount",
          "type": "uint256"
        }
      ],
      "name": "mint",
      "outputs": [],
      "stateMutability": "nonpayable",
      "type": "function"
    },
    {
      "inputs": [
        {
          "internalType": "address",
          "name": "to",
          "type": "address"
        },
        {
          "internalType": "uint256[]",
          "name": "ids",
          "type": "uint256[]"
        },
        {
          "internalType": "uint256[]",
          "name": "amounts",
          "type": "uint256[]"
        }
      ],
      "name": "mintBatch",
      "outputs": [],
      "stateMutability": "nonpayable",
      "type": "function"
    },
    {
      "inputs": [],
      "name": "owner",
      "outputs": [
        {
          "internalType": "address",
          "name": "",
          "type": "address"
        }
      ],
      "stateMutability": "view",
      "type": "function"
    },
    {
      "inputs": [
        {
          "internalType": "uint256",
          "name": "",
          "type": "uint256"
        }
      ],
      "name": "preSaleEventInfo",
      "outputs": [
        {
          "internalType": "uint256",
          "name": "maxTokensPerWallet",
          "type": "uint256"
        },
        {
          "internalType": "uint256",
          "name": "maxTokensOfSameIdPerWallet",
          "type": "uint256"
        },
        {
          "internalType": "uint256",
          "name": "startTime",
          "type": "uint256"
        },
        {
          "internalType": "uint256",
          "name": "endTime",
          "type": "uint256"
        },
        {
          "internalType": "uint256",
          "name": "maxTokensForEvent",
          "type": "uint256"
        },
        {
          "internalType": "uint256",
          "name": "tokensSold",
          "type": "uint256"
        },
        {
          "internalType": "uint256",
          "name": "price",
          "type": "uint256"
        },
        {
          "internalType": "bool",
          "name": "whiteList",
          "type": "bool"
        }
      ],
      "stateMutability": "view",
      "type": "function"
    },
    {
      "inputs": [],
      "name": "preSalePaymentToken",
      "outputs": [
        {
          "internalType": "address",
          "name": "",
          "type": "address"
        }
      ],
      "stateMutability": "view",
      "type": "function"
    },
    {
      "inputs": [],
      "name": "renounceOwnership",
      "outputs": [],
      "stateMutability": "nonpayable",
      "type": "function"
    },
    {
      "inputs": [],
      "name": "royaltyDistributionEnabled",
      "outputs": [
        {
          "internalType": "bool",
          "name": "",
          "type": "bool"
        }
      ],
      "stateMutability": "view",
      "type": "function"
    },
    {
      "inputs": [
        {
          "internalType": "uint256",
          "name": "_tokenId",
          "type": "uint256"
        },
        {
          "internalType": "uint256",
          "name": "_salePrice",
          "type": "uint256"
        }
      ],
      "name": "royaltyInfo",
      "outputs": [
        {
          "internalType": "address",
          "name": "receiver",
          "type": "address"
        },
        {
          "internalType": "uint256",
          "name": "royaltyAmount",
          "type": "uint256"
        }
      ],
      "stateMutability": "view",
      "type": "function"
    },
    {
      "inputs": [],
      "name": "royaltyReceiver",
      "outputs": [
        {
          "internalType": "address",
          "name": "",
          "type": "address"
        }
      ],
      "stateMutability": "view",
      "type": "function"
    },
    {
      "inputs": [
        {
          "internalType": "address",
          "name": "from",
          "type": "address"
        },
        {
          "internalType": "address",
          "name": "to",
          "type": "address"
        },
        {
          "internalType": "uint256[]",
          "name": "ids",
          "type": "uint256[]"
        },
        {
          "internalType": "uint256[]",
          "name": "amounts",
          "type": "uint256[]"
        },
        {
          "internalType": "bytes",
          "name": "data",
          "type": "bytes"
        }
      ],
      "name": "safeBatchTransferFrom",
      "outputs": [],
      "stateMutability": "nonpayable",
      "type": "function"
    },
    {
      "inputs": [
        {
          "internalType": "address",
          "name": "from",
          "type": "address"
        },
        {
          "internalType": "address",
          "name": "to",
          "type": "address"
        },
        {
          "internalType": "uint256",
          "name": "id",
          "type": "uint256"
        },
        {
          "internalType": "uint256",
          "name": "amount",
          "type": "uint256"
        },
        {
          "internalType": "bytes",
          "name": "data",
          "type": "bytes"
        }
      ],
      "name": "safeTransferFrom",
      "outputs": [],
      "stateMutability": "nonpayable",
      "type": "function"
    },
    {
      "inputs": [
        {
          "internalType": "address",
          "name": "operator",
          "type": "address"
        },
        {
          "internalType": "bool",
          "name": "approved",
          "type": "bool"
        }
      ],
      "name": "setApprovalForAll",
      "outputs": [],
      "stateMutability": "nonpayable",
      "type": "function"
    },
    {
      "inputs": [
        {
          "internalType": "uint256",
          "name": "tokenId",
          "type": "uint256"
        },
        {
          "internalType": "string",
          "name": "_customUri",
          "type": "string"
        }
      ],
      "name": "setCustomTokenUri",
      "outputs": [],
      "stateMutability": "nonpayable",
      "type": "function"
    },
    {
      "inputs": [
        {
          "internalType": "address[]",
          "name": "collaborators",
          "type": "address[]"
        },
        {
          "internalType": "uint256[]",
          "name": "shares",
          "type": "uint256[]"
        }
      ],
      "name": "setDefaultRoyaltyDistribution",
      "outputs": [],
      "stateMutability": "nonpayable",
      "type": "function"
    },
    {
      "inputs": [
        {
          "internalType": "uint256",
          "name": "_royalty",
          "type": "uint256"
        }
      ],
      "name": "setGlobalRoyalty",
      "outputs": [],
      "stateMutability": "nonpayable",
      "type": "function"
    },
    {
      "inputs": [
        {
          "internalType": "address",
          "name": "_preSalePaymentToken",
          "type": "address"
        }
      ],
      "name": "setPreSalePaymentToken",
      "outputs": [],
      "stateMutability": "nonpayable",
      "type": "function"
    },
    {
      "inputs": [
        {
          "internalType": "address",
          "name": "newRoyaltyReceiver",
          "type": "address"
        }
      ],
      "name": "setRoyaltyReceiver",
      "outputs": [],
      "stateMutability": "nonpayable",
      "type": "function"
    },
    {
      "inputs": [
        {
          "internalType": "uint256",
          "name": "eventId",
          "type": "uint256"
        },
        {
          "internalType": "uint256",
          "name": "tokenId",
          "type": "uint256"
        },
        {
          "internalType": "uint256",
          "name": "price",
          "type": "uint256"
        }
      ],
      "name": "setSpecialPriceForToken",
      "outputs": [],
      "stateMutability": "nonpayable",
      "type": "function"
    },
    {
      "inputs": [
        {
          "internalType": "uint256",
          "name": "_royalty",
          "type": "uint256"
        },
        {
          "internalType": "uint256",
          "name": "_tokenId",
          "type": "uint256"
        }
      ],
      "name": "setTokenRoyalty",
      "outputs": [],
      "stateMutability": "nonpayable",
      "type": "function"
    },
    {
      "inputs": [
        {
          "internalType": "address[]",
          "name": "collaborators",
          "type": "address[]"
        },
        {
          "internalType": "uint256[]",
          "name": "shares",
          "type": "uint256[]"
        },
        {
          "internalType": "uint256",
          "name": "tokenId",
          "type": "uint256"
        }
      ],
      "name": "setTokenRoyaltyDistribution",
      "outputs": [],
      "stateMutability": "nonpayable",
      "type": "function"
    },
    {
      "inputs": [
        {
          "internalType": "string",
          "name": "uri_",
          "type": "string"
        }
      ],
      "name": "setURI",
      "outputs": [],
      "stateMutability": "nonpayable",
      "type": "function"
    },
    {
      "inputs": [
        {
          "internalType": "uint256",
          "name": "",
          "type": "uint256"
        },
        {
          "internalType": "uint256",
          "name": "",
          "type": "uint256"
        }
      ],
      "name": "specialPrice",
      "outputs": [
        {
          "internalType": "uint256",
          "name": "",
          "type": "uint256"
        }
      ],
      "stateMutability": "view",
      "type": "function"
    },
    {
      "inputs": [
        {
          "internalType": "bytes4",
          "name": "interfaceId",
          "type": "bytes4"
        }
      ],
      "name": "supportsInterface",
      "outputs": [
        {
          "internalType": "bool",
          "name": "",
          "type": "bool"
        }
      ],
      "stateMutability": "view",
      "type": "function"
    },
    {
      "inputs": [
        {
          "internalType": "uint256",
          "name": "",
          "type": "uint256"
        },
        {
          "internalType": "uint256",
          "name": "",
          "type": "uint256"
        }
      ],
      "name": "tokenCollaboratorsRoyaltyShare",
      "outputs": [
        {
          "internalType": "address",
          "name": "collaborator",
          "type": "address"
        },
        {
          "internalType": "uint256",
          "name": "share",
          "type": "uint256"
        }
      ],
      "stateMutability": "view",
      "type": "function"
    },
    {
      "inputs": [
        {
          "internalType": "uint256",
          "name": "",
          "type": "uint256"
        }
      ],
      "name": "tokenRoyalty",
      "outputs": [
        {
          "internalType": "uint256",
          "name": "",
          "type": "uint256"
        }
      ],
      "stateMutability": "view",
      "type": "function"
    },
    {
      "inputs": [
        {
          "internalType": "address",
          "name": "newOwner",
          "type": "address"
        }
      ],
      "name": "transferOwnership",
      "outputs": [],
      "stateMutability": "nonpayable",
      "type": "function"
    },
    {
      "inputs": [
        {
          "internalType": "uint256",
          "name": "_eventId",
          "type": "uint256"
        },
        {
          "internalType": "uint256",
          "name": "_maxTokensPerWallet",
          "type": "uint256"
        },
        {
          "internalType": "uint256",
          "name": "_maxTokensOfSameIdPerWallet",
          "type": "uint256"
        },
        {
          "internalType": "uint256",
          "name": "_startTime",
          "type": "uint256"
        },
        {
          "internalType": "uint256",
          "name": "_endTime",
          "type": "uint256"
        },
        {
          "internalType": "uint256",
          "name": "_maxTokensForEvent",
          "type": "uint256"
        },
        {
          "internalType": "uint256",
          "name": "_price",
          "type": "uint256"
        },
        {
          "internalType": "bool",
          "name": "_whiteList",
          "type": "bool"
        }
      ],
      "name": "updatePreSaleEvent",
      "outputs": [],
      "stateMutability": "nonpayable",
      "type": "function"
    },
    {
      "inputs": [
        {
          "internalType": "uint256",
          "name": "tokenId",
          "type": "uint256"
        }
      ],
      "name": "uri",
      "outputs": [
        {
          "internalType": "string",
          "name": "",
          "type": "string"
        }
      ],
      "stateMutability": "view",
      "type": "function"
    }
  ],
  "bytecode": "0x60806040526006805461ffff60a01b191661010160a01b179055600f805460ff60a01b191690553480156200003357600080fd5b5060405162003b1238038062003b128339810160408190526200005691620002f2565b84848484816200006633620000cf565b62000071816200011f565b506007819055620000828462000138565b5050600b80546001600160a01b039384166001600160a01b031991821617909155600f80549284169282169290921790915560068054939092169216919091179055506200045092505050565b600080546001600160a01b038381166001600160a01b0319831681178455604051919092169283917f8be0079c531659141344cd1fd0a4f28419497f9722a3daafe3b4186f6b6457e09190a35050565b80516200013490600e90602084019062000219565b5050565b62000142620001bb565b6001600160a01b038116620001ad5760405162461bcd60e51b815260206004820152602660248201527f4f776e61626c653a206e6577206f776e657220697320746865207a65726f206160448201526564647265737360d01b60648201526084015b60405180910390fd5b620001b881620000cf565b50565b6000546001600160a01b03163314620002175760405162461bcd60e51b815260206004820181905260248201527f4f776e61626c653a2063616c6c6572206973206e6f7420746865206f776e65726044820152606401620001a4565b565b828054620002279062000413565b90600052602060002090601f0160209004810192826200024b576000855562000296565b82601f106200026657805160ff191683800117855562000296565b8280016001018555821562000296579182015b828111156200029657825182559160200191906001019062000279565b50620002a4929150620002a8565b5090565b5b80821115620002a45760008155600101620002a9565b80516001600160a01b0381168114620002d757600080fd5b919050565b634e487b7160e01b600052604160045260246000fd5b600080600080600060a086880312156200030b57600080fd5b6200031686620002bf565b9450602062000327818801620002bf565b60408801519095506001600160401b03808211156200034557600080fd5b818901915089601f8301126200035a57600080fd5b8151818111156200036f576200036f620002dc565b604051601f8201601f19908116603f011681019083821181831017156200039a576200039a620002dc565b816040528281528c86848701011115620003b357600080fd5b600093505b82841015620003d75784840186015181850187015292850192620003b8565b82841115620003e95760008684830101525b809850505050505050606086015191506200040760808701620002bf565b90509295509295909350565b600181811c908216806200042857607f821691505b602082108114156200044a57634e487b7160e01b600052602260045260246000fd5b50919050565b6136b280620004606000396000f3fe608060405234801561001057600080fd5b50600436106102935760003560e01c80635373dd8811610167578063b0de83a3116100ce578063ee2dd6d111610087578063ee2dd6d11461068e578063f242432a14610696578063f2fde38b146106a9578063f8ef6b71146106bc578063fa79b095146106c4578063fba52c24146106d757600080fd5b8063b0de83a3146105de578063bc189d38146105f1578063d81d0a1514610604578063da536f5a14610617578063e8c152051461063e578063e985e9c51461065257600080fd5b80638dc251e3116101205780638dc251e3146105675780639a941f5c1461057a5780639fbc8713146105a85780639fc28f81146105bb578063a0c7489d146105c3578063a22cb465146105cb57600080fd5b80635373dd88146104b15780635776be2d146104c4578063715018a6146104d757806373ba0289146104df578063863aa1c51461050a5780638da5cb5b1461054257600080fd5b80631ff4a4201161020b57806348375f84116101c457806348375f841461042f578063483b81ef1461044f57806349d72147146104585780634e1273f41461046b5780634e6836ab1461048b5780635219e8a21461049e57600080fd5b80631ff4a4201461039c57806327414163146103bc5780632a55205a146103cf5780632d785461146104015780632eb2c2d614610414578063445375201461042757600080fd5b80630c2e26011161025d5780630c2e26011461031d5780630e89341c146103305780631303657714610350578063156e29f6146103635780631763b4a8146103765780631b267eab1461038957600080fd5b8062e12fe214610298578062fdd58e146102ad578063012e46b6146102d357806301ffc9a7146102f757806302fe53051461030a575b600080fd5b6102ab6102a63660046128dc565b6106ea565b005b6102c06102bb366004612924565b61070e565b6040519081526020015b60405180910390f35b6006546102e790600160a81b900460ff1681565b60405190151581526020016102ca565b6102e7610305366004612964565b6107a6565b6102ab610318366004612a3d565b6107d1565b6102ab61032b366004612a89565b61081c565b61034361033e366004612aef565b610a58565b6040516102ca9190612b55565b6102ab61035e366004612b68565b610b23565b6102ab610371366004612b83565b610bba565b6102ab610384366004612bfa565b610bed565b6102ab610397366004612c65565b610d98565b6102c06103aa366004612aef565b60086020526000908152604090205481565b6102ab6103ca366004612b83565b610dbf565b6103e26103dd366004612cab565b610de9565b604080516001600160a01b0390931683526020830191909152016102ca565b6102ab61040f366004612ccd565b610e71565b6102ab610422366004612d8d565b610f14565b6102ab610f60565b61044261043d366004612aef565b610f7d565b6040516102ca9190612e36565b6102c060075481565b6103e2610466366004612cab565b611005565b61047e610479366004612e8e565b61104b565b6040516102ca9190612f89565b6102ab610499366004612f9c565b611174565b6102ab6104ac36600461300f565b61133c565b6102ab6104bf36600461302a565b611366565b6102ab6104d2366004613063565b6113a2565b6102ab6115db565b6102c06104ed366004612cab565b600160209081526000928352604080842090915290825290205481565b61051d61051836600461302a565b6115ef565b604080519384526001600160a01b0390921660208401521515908201526060016102ca565b6000546001600160a01b03165b6040516001600160a01b0390911681526020016102ca565b6102ab61057536600461300f565b6118de565b6102e7610588366004612924565b600460209081526000928352604080842090915290825290205460ff1681565b600b5461054f906001600160a01b031681565b6104426119bc565b6102ab611a31565b6102ab6105d93660046130bf565b611a4e565b6102ab6105ec366004612aef565b611a5d565b6102ab6105ff366004612cab565b611ab2565b6102ab6106123660046130e9565b611b13565b61062a610625366004612aef565b611b41565b6040516102ca98979695949392919061315c565b6006546102e790600160a01b900460ff1681565b6102e7610660366004613194565b6001600160a01b039182166000908152600d6020908152604080832093909416825291909152205460ff1690565b6102ab611b9a565b6102ab6106a43660046131be565b611bb1565b6102ab6106b736600461300f565b611bf6565b6102ab611c6f565b600f5461054f906001600160a01b031681565b60065461054f906001600160a01b031681565b6106f2611c86565b6000928352600160209081526040808520938552929052912055565b60006001600160a01b03831661077e5760405162461bcd60e51b815260206004820152602a60248201527f455243313135353a2061646472657373207a65726f206973206e6f742061207660448201526930b634b21037bbb732b960b11b60648201526084015b60405180910390fd5b506000908152600c602090815260408083206001600160a01b03949094168352929052205490565b60006001600160e01b0319821663d5497c4d60e01b14806107cb57506107cb82611ce0565b92915050565b6107d9611c86565b6107e281611d3b565b7fbabd00c52f3ac8b66511ad0c5d9680f0417ad32bf6c8fede4cb2d45820353bc5816040516108119190612b55565b60405180910390a150565b610824611c86565b8385106108645760405162461bcd60e51b815260206004820152600e60248201526d57726f6e672074696d656c696e6560901b6044820152606401610775565b426005898154811061087857610878613222565b906000526020600020906008020160020154116108d75760405162461bcd60e51b815260206004820152601c60248201527f4576656e7420697320616c726561647920696e2070726f6772657373000000006044820152606401610775565b86600589815481106108eb576108eb613222565b906000526020600020906008020160000181905550856005898154811061091457610914613222565b906000526020600020906008020160010181905550846005898154811061093d5761093d613222565b906000526020600020906008020160020181905550836005898154811061096657610966613222565b906000526020600020906008020160030181905550826005898154811061098f5761098f613222565b90600052602060002090600802016004018190555081600589815481106109b8576109b8613222565b90600052602060002090600802016006018190555080600589815481106109e1576109e1613222565b906000526020600020906008020160070160006101000a81548160ff0219169083151502179055507f7b06d599f3f3c5c2b5644fa6ff299230dcbe3e7aaace5bbfdebe4a40669201768888888888888888604051610a4698979695949392919061315c565b60405180910390a15050505050505050565b6000818152601060205260409020805460609190610a7590613238565b159050610b1a5760008281526010602052604090208054610a9590613238565b80601f0160208091040260200160405190810160405280929190818152602001828054610ac190613238565b8015610b0e5780601f10610ae357610100808354040283529160200191610b0e565b820191906000526020600020905b815481529060010190602001808311610af157829003601f168201915b50505050509050919050565b6107cb82611d4e565b600f546001600160a01b03163314610b4d5760405162461bcd60e51b815260040161077590613273565b600f5460ff600160a01b9091041615158115151415610b9c5760405162461bcd60e51b815260206004820152600b60248201526a105b1c9958591e481cd95d60aa1b6044820152606401610775565b600f8054911515600160a01b0260ff60a01b19909216919091179055565b610bc2611c86565b610be883838360405180604001604052806002815260200161060f60f31b815250611d5d565b505050565b610bf5611c86565b828114610c385760405162461bcd60e51b8152602060048201526011602482015270082e4e4c2f2e640c8dedce840dac2e8c6d607b1b6044820152606401610775565b6000805b82811015610c7c57838382818110610c5657610c56613222565b9050602002013582610c6891906132af565b915080610c74816132c7565b915050610c3c565b50612710811115610cc65760405162461bcd60e51b81526020600482015260146024820152730546f74616c20736861726573203e2031303030360641b6044820152606401610775565b610cd2600960006127fc565b60005b84811015610d905760096040518060400160405280888885818110610cfc57610cfc613222565b9050602002016020810190610d11919061300f565b6001600160a01b03168152602001868685818110610d3157610d31613222565b60209081029290920135909252835460018082018655600095865294829020845160029092020180546001600160a01b0319166001600160a01b0390921691909117815592015191909201555080610d88816132c7565b915050610cd5565b505050505050565b610da0611c86565b60008281526010602090815260409091208251610be89284019061281d565b600f546001600160a01b03163314610bc25760405162461bcd60e51b815260040161077590613273565b6000806000600660149054906101000a900460ff1615610e5557600085815260086020526040902054610e385761271060075485610e2791906132e2565b610e319190613301565b9050610e59565b60008581526008602052604090205461271090610e2790866132e2565b5060005b600b546001600160a01b0316925090505b9250929050565b610e79611c86565b60058281548110610e8c57610e8c613222565b600091825260209091206007600890920201015460ff16610ee65760405162461bcd60e51b81526020600482015260146024820152734576656e74206973206e6f74207072697661746560601b6044820152606401610775565b6001600160a01b0316600090815260046020908152604080832093835292905220805460ff19166001179055565b6001600160a01b038516331480610f305750610f308533610660565b610f4c5760405162461bcd60e51b815260040161077590613323565b610f598585858585611e3f565b5050505050565b610f68611c86565b6006805460ff60a81b1916600160a81b179055565b6060600a6000838152602001908152602001600020805480602002602001604051908101604052809291908181526020016000905b82821015610ffa576000848152602090819020604080518082019091526002850290910180546001600160a01b03168252600190810154828401529083529092019101610fb2565b505050509050919050565b600a602052816000526040600020818154811061102157600080fd5b6000918252602090912060029091020180546001909101546001600160a01b039091169250905082565b606081518351146110b05760405162461bcd60e51b815260206004820152602960248201527f455243313135353a206163636f756e747320616e6420696473206c656e677468604482015268040dad2e6dac2e8c6d60bb1b6064820152608401610775565b600083516001600160401b038111156110cb576110cb612988565b6040519080825280602002602001820160405280156110f4578160200160208202803683370190505b50905060005b845181101561116c5761113f85828151811061111857611118613222565b602002602001015185838151811061113257611132613222565b602002602001015161070e565b82828151811061115157611151613222565b6020908102919091010152611165816132c7565b90506110fa565b509392505050565b61117c611c86565b8382146111bf5760405162461bcd60e51b8152602060048201526011602482015270082e4e4c2f2e640c8dedce840dac2e8c6d607b1b6044820152606401610775565b6000805b83811015611203578484828181106111dd576111dd613222565b90506020020135826111ef91906132af565b9150806111fb816132c7565b9150506111c3565b5061271081111561124d5760405162461bcd60e51b81526020600482015260146024820152730546f74616c20736861726573203e2031303030360641b6044820152606401610775565b6000828152600a60205260408120611264916127fc565b60005b8581101561133357600a6000848152602001908152602001600020604051806040016040528089898581811061129f5761129f613222565b90506020020160208101906112b4919061300f565b6001600160a01b031681526020018787858181106112d4576112d4613222565b60209081029290920135909252835460018082018655600095865294829020845160029092020180546001600160a01b0319166001600160a01b039092169190911781559201519190920155508061132b816132c7565b915050611267565b50505050505050565b611344611c86565b600680546001600160a01b0319166001600160a01b0392909216919091179055565b600f546001600160a01b031633146113905760405162461bcd60e51b815260040161077590613273565b61139c84848484611fe4565b50505050565b6113aa611c86565b8385106113ea5760405162461bcd60e51b815260206004820152600e60248201526d57726f6e672074696d656c696e6560901b6044820152606401610775565b6040805161010081018252888152602081018881529181018781526060820187815260808301878152600060a0850181815260c0860189815288151560e0880190815260058054600180820183559582905298517f036b6384b5eca791c62761152d0c79bb0604c104a5fb6f4eb0703f3154bb3db06008909a02998a015598517f036b6384b5eca791c62761152d0c79bb0604c104a5fb6f4eb0703f3154bb3db189015595517f036b6384b5eca791c62761152d0c79bb0604c104a5fb6f4eb0703f3154bb3db288015593517f036b6384b5eca791c62761152d0c79bb0604c104a5fb6f4eb0703f3154bb3db387015591517f036b6384b5eca791c62761152d0c79bb0604c104a5fb6f4eb0703f3154bb3db486015590517f036b6384b5eca791c62761152d0c79bb0604c104a5fb6f4eb0703f3154bb3db585015590517f036b6384b5eca791c62761152d0c79bb0604c104a5fb6f4eb0703f3154bb3db684015590517f036b6384b5eca791c62761152d0c79bb0604c104a5fb6f4eb0703f3154bb3db7909201805460ff19169215159290921790915590547fe835538a46df8cd7ff47df55864c0898e9c41b8a4ba5996d9a757977c3397548916115af91613372565b888888888888886040516115ca98979695949392919061315c565b60405180910390a150505050505050565b6115e3611c86565b6115ed60006120f3565b565b6000806000806005858154811061160857611608613222565b6000918252602080832060066008909302019190910154878352600180835260408085208c86529093529190922054919250901561165d5760008681526001602090815260408083208b845290915290205491505b6005868154811061167057611670613222565b600091825260209091206007600890920201015460ff1680156116b757506001600160a01b038916600090815260046020908152604080832089845290915290205460ff16155b806117125750600586815481106116d0576116d0613222565b9060005260206000209060080201600201544210806117125750600586815481106116fd576116fd613222565b90600052602060002090600802016003015442115b8061179f57506005868154811061172b5761172b613222565b90600052602060002090600802016004015460001415801561179f57506005868154811061175b5761175b613222565b906000526020600020906008020160040154876005888154811061178157611781613222565b90600052602060002090600802016005015461179d91906132af565b115b806118265750600586815481106117b8576117b8613222565b9060005260206000209060080201600001546000141580156118265750600586815481106117e8576117e8613222565b600091825260208083206008909202909101548883526002825260408084206001600160a01b038e1685529092529120546118249089906132af565b115b806118b957506005868154811061183f5761183f613222565b9060005260206000209060080201600001546000141580156118b957506005868154811061186f5761186f613222565b60009182526020808320600160089093020191909101548883526003825260408084208c855283528084206001600160a01b038e1685529092529120546118b79089906132af565b115b156118c2575060005b60065491996001600160a01b0390921698509650945050505050565b6118e6611c86565b6001600160a01b0381166119315760405162461bcd60e51b815260206004820152601260248201527143616e74207365742030206164647265737360701b6044820152606401610775565b600b546001600160a01b038281169116141561199a5760405162461bcd60e51b815260206004820152602260248201527f54686973206164647265737320697320616c726561647920612072656365697660448201526132b960f11b6064820152608401610775565b600b80546001600160a01b0319166001600160a01b0392909216919091179055565b60606009805480602002602001604051908101604052809291908181526020016000905b82821015611a28576000848152602090819020604080518082019091526002850290910180546001600160a01b031682526001908101548284015290835290920191016119e0565b50505050905090565b611a39611c86565b6006805460ff60a01b1916600160a01b179055565b611a59338383612143565b5050565b611a65611c86565b612328811115611aad5760405162461bcd60e51b8152602060048201526013602482015272526f79616c7479206973206f7665722039302560681b6044820152606401610775565b600755565b611aba611c86565b612328821115611b025760405162461bcd60e51b8152602060048201526013602482015272526f79616c7479206973206f7665722039302560681b6044820152606401610775565b600090815260086020526040902055565b611b1b611c86565b610be883838360405180604001604052806002815260200161060f60f31b815250612224565b60058181548110611b5157600080fd5b6000918252602090912060089091020180546001820154600283015460038401546004850154600586015460068701546007909701549597509395929491939092909160ff1688565b611ba2611c86565b6006805460ff60a01b19169055565b6001600160a01b038516331480611bcd5750611bcd8533610660565b611be95760405162461bcd60e51b815260040161077590613323565b610f59858585858561237f565b611bfe611c86565b6001600160a01b038116611c635760405162461bcd60e51b815260206004820152602660248201527f4f776e61626c653a206e6577206f776e657220697320746865207a65726f206160448201526564647265737360d01b6064820152608401610775565b611c6c816120f3565b50565b611c77611c86565b6006805460ff60a81b19169055565b6000546001600160a01b031633146115ed5760405162461bcd60e51b815260206004820181905260248201527f4f776e61626c653a2063616c6c6572206973206e6f7420746865206f776e65726044820152606401610775565b60006001600160e01b0319821663152a902d60e11b1480611d1157506001600160e01b0319821663155c914760e31b145b80611d2c57506001600160e01b03198216631189900560e11b145b806107cb57506107cb826124bb565b8051611a5990600e90602084019061281d565b6060600e8054610a9590613238565b6001600160a01b038416611d835760405162461bcd60e51b815260040161077590613389565b336000611d8f8561250b565b90506000611d9c8561250b565b9050611dad83600089858589612556565b6000868152600c602090815260408083206001600160a01b038b16845290915281208054879290611ddf9084906132af565b909155505060408051878152602081018790526001600160a01b03808a1692600092918716917fc3d58168c5ae7397731d063d5bbf3d657854427343f4c083240f7aacaa2d0f62910160405180910390a4611333836000898989896125e5565b8151835114611e605760405162461bcd60e51b8152600401610775906133ca565b6001600160a01b038416611e865760405162461bcd60e51b815260040161077590613412565b33611e95818787878787612556565b60005b8451811015611f7e576000858281518110611eb557611eb5613222565b602002602001015190506000858381518110611ed357611ed3613222565b6020908102919091018101516000848152600c835260408082206001600160a01b038e168352909352919091205490915081811015611f245760405162461bcd60e51b815260040161077590613457565b6000838152600c602090815260408083206001600160a01b038e8116855292528083208585039055908b16825281208054849290611f639084906132af565b9250508190555050505080611f77906132c7565b9050611e98565b50846001600160a01b0316866001600160a01b0316826001600160a01b03167f4a39dc06d4c0dbc64b70af90fd698a233a518aa5d07e595d983b8c0526c8f7fb8787604051611fce9291906134a1565b60405180910390a4610d90818787878787612741565b60058181548110611ff757611ff7613222565b9060005260206000209060080201600001546000146120b45760008181526002602090815260408083206001600160a01b0388168452909152812080548492906120429084906132af565b9091555050600580548290811061205b5761205b613222565b9060005260206000209060080201600101546000146120b457600081815260036020908152604080832086845282528083206001600160a01b0388168452909152812080548492906120ae9084906132af565b90915550505b81600582815481106120c8576120c8613222565b906000526020600020906008020160050160008282546120e891906132af565b909155505050505050565b600080546001600160a01b038381166001600160a01b0319831681178455604051919092169283917f8be0079c531659141344cd1fd0a4f28419497f9722a3daafe3b4186f6b6457e09190a35050565b816001600160a01b0316836001600160a01b031614156121b75760405162461bcd60e51b815260206004820152602960248201527f455243313135353a2073657474696e6720617070726f76616c20737461747573604482015268103337b91039b2b63360b91b6064820152608401610775565b6001600160a01b038381166000818152600d6020908152604080832094871680845294825291829020805460ff191686151590811790915591519182527f17307eab39ab6107e8899845ad3d59bd9653f200f220920489ca2b5937696c31910160405180910390a3505050565b6001600160a01b03841661224a5760405162461bcd60e51b815260040161077590613389565b815183511461226b5760405162461bcd60e51b8152600401610775906133ca565b3361227b81600087878787612556565b60005b84518110156123175783818151811061229957612299613222565b6020026020010151600c60008784815181106122b7576122b7613222565b602002602001015181526020019081526020016000206000886001600160a01b03166001600160a01b0316815260200190815260200160002060008282546122ff91906132af565b9091555081905061230f816132c7565b91505061227e565b50846001600160a01b031660006001600160a01b0316826001600160a01b03167f4a39dc06d4c0dbc64b70af90fd698a233a518aa5d07e595d983b8c0526c8f7fb87876040516123689291906134a1565b60405180910390a4610f5981600087878787612741565b6001600160a01b0384166123a55760405162461bcd60e51b815260040161077590613412565b3360006123b18561250b565b905060006123be8561250b565b90506123ce838989858589612556565b6000868152600c602090815260408083206001600160a01b038c168452909152902054858110156124115760405162461bcd60e51b815260040161077590613457565b6000878152600c602090815260408083206001600160a01b038d8116855292528083208985039055908a168252812080548892906124509084906132af565b909155505060408051888152602081018890526001600160a01b03808b16928c821692918816917fc3d58168c5ae7397731d063d5bbf3d657854427343f4c083240f7aacaa2d0f62910160405180910390a46124b0848a8a8a8a8a6125e5565b505050505050505050565b60006001600160e01b03198216636cdb3d1360e11b14806124ec57506001600160e01b031982166303a24d0760e21b145b806107cb57506301ffc9a760e01b6001600160e01b03198316146107cb565b6040805160018082528183019092526060916000919060208083019080368337019050509050828160008151811061254557612545613222565b602090810291909101015292915050565b600f54600090600160a01b900460ff16158061257157503332145b806125865750600f546001600160a01b031633145b9050806113335760405162461bcd60e51b815260206004820152602760248201527f5265737472696374656420746f2044656372797074206d61726b6574706c616360448201526665206f6e6c792160c81b6064820152608401610775565b6001600160a01b0384163b15610d905760405163f23a6e6160e01b81526001600160a01b0385169063f23a6e619061262990899089908890889088906004016134cf565b6020604051808303816000875af1925050508015612664575060408051601f3d908101601f1916820190925261266191810190613514565b60015b61271157612670613531565b806308c379a014156126aa575061268561354d565b8061269057506126ac565b8060405162461bcd60e51b81526004016107759190612b55565b505b60405162461bcd60e51b815260206004820152603460248201527f455243313135353a207472616e7366657220746f206e6f6e20455243313135356044820152732932b1b2b4bb32b91034b6b83632b6b2b73a32b960611b6064820152608401610775565b6001600160e01b0319811663f23a6e6160e01b146113335760405162461bcd60e51b8152600401610775906135d6565b6001600160a01b0384163b15610d905760405163bc197c8160e01b81526001600160a01b0385169063bc197c8190612785908990899088908890889060040161361e565b6020604051808303816000875af19250505080156127c0575060408051601f3d908101601f191682019092526127bd91810190613514565b60015b6127cc57612670613531565b6001600160e01b0319811663bc197c8160e01b146113335760405162461bcd60e51b8152600401610775906135d6565b5080546000825560020290600052602060002090810190611c6c91906128a1565b82805461282990613238565b90600052602060002090601f01602090048101928261284b5760008555612891565b82601f1061286457805160ff1916838001178555612891565b82800160010185558215612891579182015b82811115612891578251825591602001919060010190612876565b5061289d9291506128c7565b5090565b5b8082111561289d5780546001600160a01b0319168155600060018201556002016128a2565b5b8082111561289d57600081556001016128c8565b6000806000606084860312156128f157600080fd5b505081359360208301359350604090920135919050565b80356001600160a01b038116811461291f57600080fd5b919050565b6000806040838503121561293757600080fd5b61294083612908565b946020939093013593505050565b6001600160e01b031981168114611c6c57600080fd5b60006020828403121561297657600080fd5b81356129818161294e565b9392505050565b634e487b7160e01b600052604160045260246000fd5b601f8201601f191681016001600160401b03811182821017156129c3576129c3612988565b6040525050565b600082601f8301126129db57600080fd5b81356001600160401b038111156129f4576129f4612988565b604051612a0b601f8301601f19166020018261299e565b818152846020838601011115612a2057600080fd5b816020850160208301376000918101602001919091529392505050565b600060208284031215612a4f57600080fd5b81356001600160401b03811115612a6557600080fd5b612a71848285016129ca565b949350505050565b8035801515811461291f57600080fd5b600080600080600080600080610100898b031215612aa657600080fd5b883597506020890135965060408901359550606089013594506080890135935060a0890135925060c08901359150612ae060e08a01612a79565b90509295985092959890939650565b600060208284031215612b0157600080fd5b5035919050565b6000815180845260005b81811015612b2e57602081850181015186830182015201612b12565b81811115612b40576000602083870101525b50601f01601f19169290920160200192915050565b6020815260006129816020830184612b08565b600060208284031215612b7a57600080fd5b61298182612a79565b600080600060608486031215612b9857600080fd5b612ba184612908565b95602085013595506040909401359392505050565b60008083601f840112612bc857600080fd5b5081356001600160401b03811115612bdf57600080fd5b6020830191508360208260051b8501011115610e6a57600080fd5b60008060008060408587031215612c1057600080fd5b84356001600160401b0380821115612c2757600080fd5b612c3388838901612bb6565b90965094506020870135915080821115612c4c57600080fd5b50612c5987828801612bb6565b95989497509550505050565b60008060408385031215612c7857600080fd5b8235915060208301356001600160401b03811115612c9557600080fd5b612ca1858286016129ca565b9150509250929050565b60008060408385031215612cbe57600080fd5b50508035926020909101359150565b60008060408385031215612ce057600080fd5b82359150612cf060208401612908565b90509250929050565b60006001600160401b03821115612d1257612d12612988565b5060051b60200190565b600082601f830112612d2d57600080fd5b81356020612d3a82612cf9565b604051612d47828261299e565b83815260059390931b8501820192828101915086841115612d6757600080fd5b8286015b84811015612d825780358352918301918301612d6b565b509695505050505050565b600080600080600060a08688031215612da557600080fd5b612dae86612908565b9450612dbc60208701612908565b935060408601356001600160401b0380821115612dd857600080fd5b612de489838a01612d1c565b94506060880135915080821115612dfa57600080fd5b612e0689838a01612d1c565b93506080880135915080821115612e1c57600080fd5b50612e29888289016129ca565b9150509295509295909350565b602080825282518282018190526000919060409081850190868401855b82811015612e8157815180516001600160a01b03168552860151868501529284019290850190600101612e53565b5091979650505050505050565b60008060408385031215612ea157600080fd5b82356001600160401b0380821115612eb857600080fd5b818501915085601f830112612ecc57600080fd5b81356020612ed982612cf9565b604051612ee6828261299e565b83815260059390931b8501820192828101915089841115612f0657600080fd5b948201945b83861015612f2b57612f1c86612908565b82529482019490820190612f0b565b96505086013592505080821115612f4157600080fd5b50612ca185828601612d1c565b600081518084526020808501945080840160005b83811015612f7e57815187529582019590820190600101612f62565b509495945050505050565b6020815260006129816020830184612f4e565b600080600080600060608688031215612fb457600080fd5b85356001600160401b0380821115612fcb57600080fd5b612fd789838a01612bb6565b90975095506020880135915080821115612ff057600080fd5b50612ffd88828901612bb6565b96999598509660400135949350505050565b60006020828403121561302157600080fd5b61298182612908565b6000806000806080858703121561304057600080fd5b61304985612908565b966020860135965060408601359560600135945092505050565b600080600080600080600060e0888a03121561307e57600080fd5b873596506020880135955060408801359450606088013593506080880135925060a088013591506130b160c08901612a79565b905092959891949750929550565b600080604083850312156130d257600080fd5b6130db83612908565b9150612cf060208401612a79565b6000806000606084860312156130fe57600080fd5b61310784612908565b925060208401356001600160401b038082111561312357600080fd5b61312f87838801612d1c565b9350604086013591508082111561314557600080fd5b5061315286828701612d1c565b9150509250925092565b978852602088019690965260408701949094526060860192909252608085015260a084015260c0830152151560e08201526101000190565b600080604083850312156131a757600080fd5b6131b083612908565b9150612cf060208401612908565b600080600080600060a086880312156131d657600080fd5b6131df86612908565b94506131ed60208701612908565b9350604086013592506060860135915060808601356001600160401b0381111561321657600080fd5b612e29888289016129ca565b634e487b7160e01b600052603260045260246000fd5b600181811c9082168061324c57607f821691505b6020821081141561326d57634e487b7160e01b600052602260045260246000fd5b50919050565b6020808252600c908201526b155b985d5d1a1bdc9a5e995960a21b604082015260600190565b634e487b7160e01b600052601160045260246000fd5b600082198211156132c2576132c2613299565b500190565b60006000198214156132db576132db613299565b5060010190565b60008160001904831182151516156132fc576132fc613299565b500290565b60008261331e57634e487b7160e01b600052601260045260246000fd5b500490565b6020808252602f908201527f455243313135353a2063616c6c6572206973206e6f7420746f6b656e206f776e60408201526e195c881b9bdc88185c1c1c9bdd9959608a1b606082015260800190565b60008282101561338457613384613299565b500390565b60208082526021908201527f455243313135353a206d696e7420746f20746865207a65726f206164647265736040820152607360f81b606082015260800190565b60208082526028908201527f455243313135353a2069647320616e6420616d6f756e7473206c656e677468206040820152670dad2e6dac2e8c6d60c31b606082015260800190565b60208082526025908201527f455243313135353a207472616e7366657220746f20746865207a65726f206164604082015264647265737360d81b606082015260800190565b6020808252602a908201527f455243313135353a20696e73756666696369656e742062616c616e636520666f60408201526939103a3930b739b332b960b11b606082015260800190565b6040815260006134b46040830185612f4e565b82810360208401526134c68185612f4e565b95945050505050565b6001600160a01b03868116825285166020820152604081018490526060810183905260a06080820181905260009061350990830184612b08565b979650505050505050565b60006020828403121561352657600080fd5b81516129818161294e565b600060033d111561354a5760046000803e5060005160e01c5b90565b600060443d101561355b5790565b6040516003193d81016004833e81513d6001600160401b03816024840111818411171561358a57505050505090565b82850191508151818111156135a25750505050505090565b843d87010160208285010111156135bc5750505050505090565b6135cb6020828601018761299e565b509095945050505050565b60208082526028908201527f455243313135353a204552433131353552656365697665722072656a656374656040820152676420746f6b656e7360c01b606082015260800190565b6001600160a01b0386811682528516602082015260a06040820181905260009061364a90830186612f4e565b828103606084015261365c8186612f4e565b905082810360808401526136708185612b08565b9897505050505050505056fea2646970667358221220e06257fbc85e9fbed5071561dab7338c6d84e90701d161a7a5a34b053aa29be764736f6c634300080a0033",
  "linkReferences": {},
  "deployedLinkReferences": {}
}