{
  "_format": "hh-sol-artifact-1",
  "contractName": "ExtendedERC721",
  "sourceName": "contracts/ExtendedERC721.sol",
  "abi": [
    {
      "inputs": [
        {
          "internalType": "address",
          "name": "owner_",
          "type": "address"
        },
        {
          "internalType": "address",
          "name": "dercyptMarketplaceAddress_",
          "type": "address"
        },
        {
          "internalType": "string",
          "name": "name_",
          "type": "string"
        },
        {
          "internalType": "string",
          "name": "symbol_",
          "type": "string"
        },
        {
          "internalType": "string",
          "name": "uri_",
          "type": "string"
        },
        {
          "internalType": "uint256",
          "name": "royalty_",
          "type": "uint256"
        },
        {
          "internalType": "address",
          "name": "preSalePaymentToken_",
          "type": "address"
        }
      ],
      "stateMutability": "nonpayable",
      "type": "constructor"
    },
    {
      "anonymous": false,
      "inputs": [
        {
          "indexed": true,
          "internalType": "address",
          "name": "owner",
          "type": "address"
        },
        {
          "indexed": true,
          "internalType": "address",
          "name": "approved",
          "type": "address"
        },
        {
          "indexed": true,
          "internalType": "uint256",
          "name": "tokenId",
          "type": "uint256"
        }
      ],
      "name": "Approval",
      "type": "event"
    },
    {
      "anonymous": false,
      "inputs": [
        {
          "indexed": true,
          "internalType": "address",
          "name": "owner",
          "type": "address"
        },
        {
          "indexed": true,
          "internalType": "address",
          "name": "operator",
          "type": "address"
        },
        {
          "indexed": false,
          "internalType": "bool",
          "name": "approved",
          "type": "bool"
        }
      ],
      "name": "ApprovalForAll",
      "type": "event"
    },
    {
      "anonymous": false,
      "inputs": [
        {
          "indexed": false,
          "internalType": "uint256",
          "name": "_eventId",
          "type": "uint256"
        },
        {
          "indexed": false,
          "internalType": "uint256",
          "name": "_maxTokensPerWallet",
          "type": "uint256"
        },
        {
          "indexed": false,
          "internalType": "uint256",
          "name": "_startTime",
          "type": "uint256"
        },
        {
          "indexed": false,
          "internalType": "uint256",
          "name": "_endTime",
          "type": "uint256"
        },
        {
          "indexed": false,
          "internalType": "uint256",
          "name": "_maxTokensForTier",
          "type": "uint256"
        },
        {
          "indexed": false,
          "internalType": "uint256",
          "name": "_price",
          "type": "uint256"
        },
        {
          "indexed": false,
          "internalType": "bool",
          "name": "_whiteList",
          "type": "bool"
        }
      ],
      "name": "NewPreSale",
      "type": "event"
    },
    {
      "anonymous": false,
      "inputs": [
        {
          "indexed": true,
          "internalType": "address",
          "name": "previousOwner",
          "type": "address"
        },
        {
          "indexed": true,
          "internalType": "address",
          "name": "newOwner",
          "type": "address"
        }
      ],
      "name": "OwnershipTransferred",
      "type": "event"
    },
    {
      "anonymous": false,
      "inputs": [
        {
          "indexed": true,
          "internalType": "address",
          "name": "from",
          "type": "address"
        },
        {
          "indexed": true,
          "internalType": "address",
          "name": "to",
          "type": "address"
        },
        {
          "indexed": true,
          "internalType": "uint256",
          "name": "tokenId",
          "type": "uint256"
        }
      ],
      "name": "Transfer",
      "type": "event"
    },
    {
      "anonymous": false,
      "inputs": [
        {
          "indexed": false,
          "internalType": "uint256",
          "name": "_eventId",
          "type": "uint256"
        },
        {
          "indexed": false,
          "internalType": "uint256",
          "name": "_maxTokensPerWallet",
          "type": "uint256"
        },
        {
          "indexed": false,
          "internalType": "uint256",
          "name": "_startTime",
          "type": "uint256"
        },
        {
          "indexed": false,
          "internalType": "uint256",
          "name": "_endTime",
          "type": "uint256"
        },
        {
          "indexed": false,
          "internalType": "uint256",
          "name": "_maxTokensForTier",
          "type": "uint256"
        },
        {
          "indexed": false,
          "internalType": "uint256",
          "name": "_price",
          "type": "uint256"
        },
        {
          "indexed": false,
          "internalType": "bool",
          "name": "_whiteList",
          "type": "bool"
        }
      ],
      "name": "UpdatedPreSale",
      "type": "event"
    },
    {
      "anonymous": false,
      "inputs": [
        {
          "indexed": false,
          "internalType": "string",
          "name": "_uri",
          "type": "string"
        }
      ],
      "name": "UpdatedURI",
      "type": "event"
    },
    {
      "inputs": [
        {
          "internalType": "uint256",
          "name": "eventId",
          "type": "uint256"
        },
        {
          "internalType": "address",
          "name": "buyer",
          "type": "address"
        }
      ],
      "name": "addToWhitelist",
      "outputs": [],
      "stateMutability": "nonpayable",
      "type": "function"
    },
    {
      "inputs": [
        {
          "internalType": "address",
          "name": "to",
          "type": "address"
        },
        {
          "internalType": "uint256",
          "name": "tokenId",
          "type": "uint256"
        }
      ],
      "name": "approve",
      "outputs": [],
      "stateMutability": "nonpayable",
      "type": "function"
    },
    {
      "inputs": [
        {
          "internalType": "address",
          "name": "owner",
          "type": "address"
        }
      ],
      "name": "balanceOf",
      "outputs": [
        {
          "internalType": "uint256",
          "name": "",
          "type": "uint256"
        }
      ],
      "stateMutability": "view",
      "type": "function"
    },
    {
      "inputs": [],
      "name": "baseURI",
      "outputs": [
        {
          "internalType": "string",
          "name": "",
          "type": "string"
        }
      ],
      "stateMutability": "view",
      "type": "function"
    },
    {
      "inputs": [
        {
          "internalType": "uint256",
          "name": "eventId",
          "type": "uint256"
        },
        {
          "internalType": "address",
          "name": "buyer",
          "type": "address"
        }
      ],
      "name": "countTokensBought",
      "outputs": [],
      "stateMutability": "nonpayable",
      "type": "function"
    },
    {
      "inputs": [
        {
          "internalType": "uint256",
          "name": "_maxTokensPerWallet",
          "type": "uint256"
        },
        {
          "internalType": "uint256",
          "name": "_startTime",
          "type": "uint256"
        },
        {
          "internalType": "uint256",
          "name": "_endTime",
          "type": "uint256"
        },
        {
          "internalType": "uint256",
          "name": "_maxTokensForEvent",
          "type": "uint256"
        },
        {
          "internalType": "uint256",
          "name": "_price",
          "type": "uint256"
        },
        {
          "internalType": "bool",
          "name": "_whiteList",
          "type": "bool"
        }
      ],
      "name": "createPreSaleEvent",
      "outputs": [],
      "stateMutability": "nonpayable",
      "type": "function"
    },
    {
      "inputs": [],
      "name": "disableRoyalty",
      "outputs": [],
      "stateMutability": "nonpayable",
      "type": "function"
    },
    {
      "inputs": [],
      "name": "disableRoyaltyDistribution",
      "outputs": [],
      "stateMutability": "nonpayable",
      "type": "function"
    },
    {
      "inputs": [],
      "name": "enableRoyalty",
      "outputs": [],
      "stateMutability": "nonpayable",
      "type": "function"
    },
    {
      "inputs": [],
      "name": "enableRoyaltyDistribution",
      "outputs": [],
      "stateMutability": "nonpayable",
      "type": "function"
    },
    {
      "inputs": [
        {
          "internalType": "uint256",
          "name": "tokenId",
          "type": "uint256"
        }
      ],
      "name": "exists",
      "outputs": [
        {
          "internalType": "bool",
          "name": "",
          "type": "bool"
        }
      ],
      "stateMutability": "view",
      "type": "function"
    },
    {
      "inputs": [
        {
          "internalType": "bool",
          "name": "_forbidden",
          "type": "bool"
        }
      ],
      "name": "forbidToTradeOnOtherMarketplaces",
      "outputs": [],
      "stateMutability": "nonpayable",
      "type": "function"
    },
    {
      "inputs": [
        {
          "internalType": "uint256",
          "name": "tokenId",
          "type": "uint256"
        }
      ],
      "name": "getApproved",
      "outputs": [
        {
          "internalType": "address",
          "name": "",
          "type": "address"
        }
      ],
      "stateMutability": "view",
      "type": "function"
    },
    {
      "inputs": [],
      "name": "getDefaultRoyaltyDistribution",
      "outputs": [
        {
          "components": [
            {
              "internalType": "address",
              "name": "collaborator",
              "type": "address"
            },
            {
              "internalType": "uint256",
              "name": "share",
              "type": "uint256"
            }
          ],
          "internalType": "struct RoyaltyDistribution.RoyaltyShare[]",
          "name": "",
          "type": "tuple[]"
        }
      ],
      "stateMutability": "view",
      "type": "function"
    },
    {
      "inputs": [
        {
          "internalType": "address",
          "name": "buyer",
          "type": "address"
        },
        {
          "internalType": "uint256",
          "name": "tokenId",
          "type": "uint256"
        },
        {
          "internalType": "uint256",
          "name": "eventId",
          "type": "uint256"
        }
      ],
      "name": "getTokenInfo",
      "outputs": [
        {
          "internalType": "uint256",
          "name": "tokenPrice",
          "type": "uint256"
        },
        {
          "internalType": "address",
          "name": "paymentToken",
          "type": "address"
        },
        {
          "internalType": "bool",
          "name": "availableForBuyer",
          "type": "bool"
        }
      ],
      "stateMutability": "view",
      "type": "function"
    },
    {
      "inputs": [
        {
          "internalType": "uint256",
          "name": "tokenId",
          "type": "uint256"
        }
      ],
      "name": "getTokenRoyaltyDistribution",
      "outputs": [
        {
          "components": [
            {
              "internalType": "address",
              "name": "collaborator",
              "type": "address"
            },
            {
              "internalType": "uint256",
              "name": "share",
              "type": "uint256"
            }
          ],
          "internalType": "struct RoyaltyDistribution.RoyaltyShare[]",
          "name": "",
          "type": "tuple[]"
        }
      ],
      "stateMutability": "view",
      "type": "function"
    },
    {
      "inputs": [],
      "name": "globalRoyalty",
      "outputs": [
        {
          "internalType": "uint256",
          "name": "",
          "type": "uint256"
        }
      ],
      "stateMutability": "view",
      "type": "function"
    },
    {
      "inputs": [],
      "name": "globalRoyaltyEnabled",
      "outputs": [
        {
          "internalType": "bool",
          "name": "",
          "type": "bool"
        }
      ],
      "stateMutability": "view",
      "type": "function"
    },
    {
      "inputs": [
        {
          "internalType": "address",
          "name": "",
          "type": "address"
        },
        {
          "internalType": "uint256",
          "name": "",
          "type": "uint256"
        }
      ],
      "name": "isAddressWhitelisted",
      "outputs": [
        {
          "internalType": "bool",
          "name": "",
          "type": "bool"
        }
      ],
      "stateMutability": "view",
      "type": "function"
    },
    {
      "inputs": [
        {
          "internalType": "address",
          "name": "owner",
          "type": "address"
        },
        {
          "internalType": "address",
          "name": "operator",
          "type": "address"
        }
      ],
      "name": "isApprovedForAll",
      "outputs": [
        {
          "internalType": "bool",
          "name": "",
          "type": "bool"
        }
      ],
      "stateMutability": "view",
      "type": "function"
    },
    {
      "inputs": [
        {
          "internalType": "address",
          "name": "to",
          "type": "address"
        },
        {
          "internalType": "uint256",
          "name": "tokenId",
          "type": "uint256"
        }
      ],
      "name": "lazyMint",
      "outputs": [],
      "stateMutability": "nonpayable",
      "type": "function"
    },
    {
      "inputs": [],
      "name": "lnMarketplaceAddress",
      "outputs": [
        {
          "internalType": "address",
          "name": "",
          "type": "address"
        }
      ],
      "stateMutability": "view",
      "type": "function"
    },
    {
      "inputs": [
        {
          "internalType": "address",
          "name": "to",
          "type": "address"
        },
        {
          "internalType": "uint256",
          "name": "tokenId",
          "type": "uint256"
        }
      ],
      "name": "mint",
      "outputs": [],
      "stateMutability": "nonpayable",
      "type": "function"
    },
    {
      "inputs": [],
      "name": "name",
      "outputs": [
        {
          "internalType": "string",
          "name": "",
          "type": "string"
        }
      ],
      "stateMutability": "view",
      "type": "function"
    },
    {
      "inputs": [],
      "name": "owner",
      "outputs": [
        {
          "internalType": "address",
          "name": "",
          "type": "address"
        }
      ],
      "stateMutability": "view",
      "type": "function"
    },
    {
      "inputs": [
        {
          "internalType": "uint256",
          "name": "tokenId",
          "type": "uint256"
        }
      ],
      "name": "ownerOf",
      "outputs": [
        {
          "internalType": "address",
          "name": "",
          "type": "address"
        }
      ],
      "stateMutability": "view",
      "type": "function"
    },
    {
      "inputs": [
        {
          "internalType": "uint256",
          "name": "",
          "type": "uint256"
        }
      ],
      "name": "preSaleEventInfo",
      "outputs": [
        {
          "internalType": "uint256",
          "name": "maxTokensPerWallet",
          "type": "uint256"
        },
        {
          "internalType": "uint256",
          "name": "startTime",
          "type": "uint256"
        },
        {
          "internalType": "uint256",
          "name": "endTime",
          "type": "uint256"
        },
        {
          "internalType": "uint256",
          "name": "maxTokensForEvent",
          "type": "uint256"
        },
        {
          "internalType": "uint256",
          "name": "tokensSold",
          "type": "uint256"
        },
        {
          "internalType": "uint256",
          "name": "price",
          "type": "uint256"
        },
        {
          "internalType": "bool",
          "name": "whiteList",
          "type": "bool"
        }
      ],
      "stateMutability": "view",
      "type": "function"
    },
    {
      "inputs": [],
      "name": "preSalePaymentToken",
      "outputs": [
        {
          "internalType": "address",
          "name": "",
          "type": "address"
        }
      ],
      "stateMutability": "view",
      "type": "function"
    },
    {
      "inputs": [],
      "name": "renounceOwnership",
      "outputs": [],
      "stateMutability": "nonpayable",
      "type": "function"
    },
    {
      "inputs": [
        {
          "internalType": "address",
          "name": "userAddress",
          "type": "address"
        },
        {
          "internalType": "uint256",
          "name": "tokenId",
          "type": "uint256"
        }
      ],
      "name": "reserveToken",
      "outputs": [],
      "stateMutability": "nonpayable",
      "type": "function"
    },
    {
      "inputs": [
        {
          "internalType": "uint256",
          "name": "",
          "type": "uint256"
        }
      ],
      "name": "reservedToken",
      "outputs": [
        {
          "internalType": "address",
          "name": "",
          "type": "address"
        }
      ],
      "stateMutability": "view",
      "type": "function"
    },
    {
      "inputs": [],
      "name": "royaltyDistributionEnabled",
      "outputs": [
        {
          "internalType": "bool",
          "name": "",
          "type": "bool"
        }
      ],
      "stateMutability": "view",
      "type": "function"
    },
    {
      "inputs": [
        {
          "internalType": "uint256",
          "name": "_tokenId",
          "type": "uint256"
        },
        {
          "internalType": "uint256",
          "name": "_salePrice",
          "type": "uint256"
        }
      ],
      "name": "royaltyInfo",
      "outputs": [
        {
          "internalType": "address",
          "name": "receiver",
          "type": "address"
        },
        {
          "internalType": "uint256",
          "name": "royaltyAmount",
          "type": "uint256"
        }
      ],
      "stateMutability": "view",
      "type": "function"
    },
    {
      "inputs": [],
      "name": "royaltyReceiver",
      "outputs": [
        {
          "internalType": "address",
          "name": "",
          "type": "address"
        }
      ],
      "stateMutability": "view",
      "type": "function"
    },
    {
      "inputs": [
        {
          "internalType": "address",
          "name": "from",
          "type": "address"
        },
        {
          "internalType": "address",
          "name": "to",
          "type": "address"
        },
        {
          "internalType": "uint256",
          "name": "tokenId",
          "type": "uint256"
        }
      ],
      "name": "safeTransferFrom",
      "outputs": [],
      "stateMutability": "nonpayable",
      "type": "function"
    },
    {
      "inputs": [
        {
          "internalType": "address",
          "name": "from",
          "type": "address"
        },
        {
          "internalType": "address",
          "name": "to",
          "type": "address"
        },
        {
          "internalType": "uint256",
          "name": "tokenId",
          "type": "uint256"
        },
        {
          "internalType": "bytes",
          "name": "data",
          "type": "bytes"
        }
      ],
      "name": "safeTransferFrom",
      "outputs": [],
      "stateMutability": "nonpayable",
      "type": "function"
    },
    {
      "inputs": [
        {
          "internalType": "address",
          "name": "operator",
          "type": "address"
        },
        {
          "internalType": "bool",
          "name": "approved",
          "type": "bool"
        }
      ],
      "name": "setApprovalForAll",
      "outputs": [],
      "stateMutability": "nonpayable",
      "type": "function"
    },
    {
      "inputs": [
        {
          "internalType": "uint256",
          "name": "tokenId",
          "type": "uint256"
        },
        {
          "internalType": "string",
          "name": "_customUri",
          "type": "string"
        }
      ],
      "name": "setCustomTokenUri",
      "outputs": [],
      "stateMutability": "nonpayable",
      "type": "function"
    },
    {
      "inputs": [
        {
          "internalType": "address[]",
          "name": "collaborators",
          "type": "address[]"
        },
        {
          "internalType": "uint256[]",
          "name": "shares",
          "type": "uint256[]"
        }
      ],
      "name": "setDefaultRoyaltyDistribution",
      "outputs": [],
      "stateMutability": "nonpayable",
      "type": "function"
    },
    {
      "inputs": [
        {
          "internalType": "uint256",
          "name": "_royalty",
          "type": "uint256"
        }
      ],
      "name": "setGlobalRoyalty",
      "outputs": [],
      "stateMutability": "nonpayable",
      "type": "function"
    },
    {
      "inputs": [
        {
          "internalType": "address",
          "name": "_preSalePaymentToken",
          "type": "address"
        }
      ],
      "name": "setPreSalePaymentToken",
      "outputs": [],
      "stateMutability": "nonpayable",
      "type": "function"
    },
    {
      "inputs": [
        {
          "internalType": "address",
          "name": "newRoyaltyReceiver",
          "type": "address"
        }
      ],
      "name": "setRoyaltyReceiver",
      "outputs": [],
      "stateMutability": "nonpayable",
      "type": "function"
    },
    {
      "inputs": [
        {
          "internalType": "uint256",
          "name": "eventId",
          "type": "uint256"
        },
        {
          "internalType": "uint256",
          "name": "tokenId",
          "type": "uint256"
        },
        {
          "internalType": "uint256",
          "name": "price",
          "type": "uint256"
        }
      ],
      "name": "setSpecialPriceForToken",
      "outputs": [],
      "stateMutability": "nonpayable",
      "type": "function"
    },
    {
      "inputs": [
        {
          "internalType": "uint256",
          "name": "_royalty",
          "type": "uint256"
        },
        {
          "internalType": "uint256",
          "name": "_tokenId",
          "type": "uint256"
        }
      ],
      "name": "setTokenRoyalty",
      "outputs": [],
      "stateMutability": "nonpayable",
      "type": "function"
    },
    {
      "inputs": [
        {
          "internalType": "address[]",
          "name": "collaborators",
          "type": "address[]"
        },
        {
          "internalType": "uint256[]",
          "name": "shares",
          "type": "uint256[]"
        },
        {
          "internalType": "uint256",
          "name": "tokenId",
          "type": "uint256"
        }
      ],
      "name": "setTokenRoyaltyDistribution",
      "outputs": [],
      "stateMutability": "nonpayable",
      "type": "function"
    },
    {
      "inputs": [
        {
          "internalType": "string",
          "name": "uri_",
          "type": "string"
        }
      ],
      "name": "setURI",
      "outputs": [],
      "stateMutability": "nonpayable",
      "type": "function"
    },
    {
      "inputs": [
        {
          "internalType": "uint256",
          "name": "",
          "type": "uint256"
        },
        {
          "internalType": "uint256",
          "name": "",
          "type": "uint256"
        }
      ],
      "name": "specialPrice",
      "outputs": [
        {
          "internalType": "uint256",
          "name": "",
          "type": "uint256"
        }
      ],
      "stateMutability": "view",
      "type": "function"
    },
    {
      "inputs": [
        {
          "internalType": "bytes4",
          "name": "interfaceId",
          "type": "bytes4"
        }
      ],
      "name": "supportsInterface",
      "outputs": [
        {
          "internalType": "bool",
          "name": "",
          "type": "bool"
        }
      ],
      "stateMutability": "view",
      "type": "function"
    },
    {
      "inputs": [],
      "name": "symbol",
      "outputs": [
        {
          "internalType": "string",
          "name": "",
          "type": "string"
        }
      ],
      "stateMutability": "view",
      "type": "function"
    },
    {
      "inputs": [
        {
          "internalType": "uint256",
          "name": "",
          "type": "uint256"
        },
        {
          "internalType": "uint256",
          "name": "",
          "type": "uint256"
        }
      ],
      "name": "tokenCollaboratorsRoyaltyShare",
      "outputs": [
        {
          "internalType": "address",
          "name": "collaborator",
          "type": "address"
        },
        {
          "internalType": "uint256",
          "name": "share",
          "type": "uint256"
        }
      ],
      "stateMutability": "view",
      "type": "function"
    },
    {
      "inputs": [
        {
          "internalType": "uint256",
          "name": "",
          "type": "uint256"
        }
      ],
      "name": "tokenRoyalty",
      "outputs": [
        {
          "internalType": "uint256",
          "name": "",
          "type": "uint256"
        }
      ],
      "stateMutability": "view",
      "type": "function"
    },
    {
      "inputs": [
        {
          "internalType": "uint256",
          "name": "tokenId",
          "type": "uint256"
        }
      ],
      "name": "tokenURI",
      "outputs": [
        {
          "internalType": "string",
          "name": "",
          "type": "string"
        }
      ],
      "stateMutability": "view",
      "type": "function"
    },
    {
      "inputs": [
        {
          "internalType": "address",
          "name": "from",
          "type": "address"
        },
        {
          "internalType": "address",
          "name": "to",
          "type": "address"
        },
        {
          "internalType": "uint256",
          "name": "tokenId",
          "type": "uint256"
        }
      ],
      "name": "transferFrom",
      "outputs": [],
      "stateMutability": "nonpayable",
      "type": "function"
    },
    {
      "inputs": [
        {
          "internalType": "address",
          "name": "newOwner",
          "type": "address"
        }
      ],
      "name": "transferOwnership",
      "outputs": [],
      "stateMutability": "nonpayable",
      "type": "function"
    },
    {
      "inputs": [
        {
          "internalType": "uint256",
          "name": "_eventId",
          "type": "uint256"
        },
        {
          "internalType": "uint256",
          "name": "_maxTokensPerWallet",
          "type": "uint256"
        },
        {
          "internalType": "uint256",
          "name": "_startTime",
          "type": "uint256"
        },
        {
          "internalType": "uint256",
          "name": "_endTime",
          "type": "uint256"
        },
        {
          "internalType": "uint256",
          "name": "_maxTokensForEvent",
          "type": "uint256"
        },
        {
          "internalType": "uint256",
          "name": "_price",
          "type": "uint256"
        },
        {
          "internalType": "bool",
          "name": "_whiteList",
          "type": "bool"
        }
      ],
      "name": "updatePreSaleEvent",
      "outputs": [],
      "stateMutability": "nonpayable",
      "type": "function"
    }
  ],
  "bytecode": "0x60806040526007805461ffff60a01b191661010160a01b1790556014805460ff60a01b191690553480156200003357600080fd5b50604051620037b7380380620037b78339810160408190526200005691620003cf565b868686868686838362000069336200010e565b81516200007e90600d9060208501906200023f565b5080516200009490600e9060208401906200023f565b50508251620000ac915060139060208501906200023f565b506008819055620000bd866200015e565b5050600c80546001600160a01b039586166001600160a01b031991821617909155601480549486169482169490941790935550506007805493909216921691909117905550620004e0945050505050565b600080546001600160a01b038381166001600160a01b0319831681178455604051919092169283917f8be0079c531659141344cd1fd0a4f28419497f9722a3daafe3b4186f6b6457e09190a35050565b62000168620001e1565b6001600160a01b038116620001d35760405162461bcd60e51b815260206004820152602660248201527f4f776e61626c653a206e6577206f776e657220697320746865207a65726f206160448201526564647265737360d01b60648201526084015b60405180910390fd5b620001de816200010e565b50565b6000546001600160a01b031633146200023d5760405162461bcd60e51b815260206004820181905260248201527f4f776e61626c653a2063616c6c6572206973206e6f7420746865206f776e65726044820152606401620001ca565b565b8280546200024d90620004a3565b90600052602060002090601f016020900481019282620002715760008555620002bc565b82601f106200028c57805160ff1916838001178555620002bc565b82800160010185558215620002bc579182015b82811115620002bc5782518255916020019190600101906200029f565b50620002ca929150620002ce565b5090565b5b80821115620002ca5760008155600101620002cf565b80516001600160a01b0381168114620002fd57600080fd5b919050565b634e487b7160e01b600052604160045260246000fd5b600082601f8301126200032a57600080fd5b81516001600160401b038082111562000347576200034762000302565b604051601f8301601f19908116603f0116810190828211818310171562000372576200037262000302565b816040528381526020925086838588010111156200038f57600080fd5b600091505b83821015620003b3578582018301518183018401529082019062000394565b83821115620003c55760008385830101525b9695505050505050565b600080600080600080600060e0888a031215620003eb57600080fd5b620003f688620002e5565b96506200040660208901620002e5565b60408901519096506001600160401b03808211156200042457600080fd5b620004328b838c0162000318565b965060608a01519150808211156200044957600080fd5b620004578b838c0162000318565b955060808a01519150808211156200046e57600080fd5b506200047d8a828b0162000318565b93505060a088015191506200049560c08901620002e5565b905092959891949750929550565b600181811c90821680620004b857607f821691505b60208210811415620004da57634e487b7160e01b600052602260045260246000fd5b50919050565b6132c780620004f06000396000f3fe608060405234801561001057600080fd5b506004361061035c5760003560e01c80636352211e116101d3578063ab27696811610104578063e8c15205116100a2578063f2fde38b1161007c578063f2fde38b14610819578063f8ef6b711461082c578063fa79b09514610834578063fba52c241461084757600080fd5b8063e8c15205146107c1578063e985e9c5146107d5578063ee2dd6d11461081157600080fd5b8063bc189d38116100de578063bc189d381461073e578063c87b56dd14610751578063d63622f114610764578063da536f5a1461077757600080fd5b8063ab27696814610705578063b0de83a314610718578063b88d4fde1461072b57600080fd5b80638dc251e3116101715780639fbc87131161014b5780639fbc8713146106cf5780639fc28f81146106e2578063a0c7489d146106ea578063a22cb465146106f257600080fd5b80638dc251e31461068657806395d89b41146106995780639a941f5c146106a157600080fd5b8063715018a6116101ad578063715018a61461062f57806373ba02891461063757806379657870146106625780638da5cb5b1461067557600080fd5b80636352211e146106015780636c0360eb1461061457806370a082311461061c57600080fd5b80632a55205a116102ad57806348375f841161024b5780634e0b0ed6116102255780634e0b0ed61461059f5780634e6836ab146105c85780634f558e79146105db5780635219e8a2146105ee57600080fd5b806348375f8414610563578063483b81ef1461058357806349d721471461058c57600080fd5b8063336b44bb11610287578063336b44bb1461052257806340c10f191461053557806342842e0e14610548578063445375201461055b57600080fd5b80632a55205a146104ca5780632d785461146104fc5780632fa33f471461050f57600080fd5b8063095ea7b31161031a5780631763b4a8116102f45780631763b4a8146104635780631b267eab146104765780631ff4a4201461048957806323b872dd146104b757600080fd5b8063095ea7b3146104055780630f65728a14610418578063130365771461045057600080fd5b8062e12fe214610361578063012e46b61461037657806301ffc9a71461039f57806302fe5305146103b257806306fdde03146103c5578063081812fc146103da575b600080fd5b61037461036f3660046129e6565b61085a565b005b60075461038a90600160a81b900460ff1681565b60405190151581526020015b60405180910390f35b61038a6103ad366004612a28565b61087e565b6103746103c0366004612af1565b6108a9565b6103cd6108ff565b6040516103969190612b7e565b6103ed6103e8366004612b91565b610991565b6040516001600160a01b039091168152602001610396565b610374610413366004612bc6565b6109b8565b61042b610426366004612bf0565b610ad3565b604080519384526001600160a01b039092166020840152151590820152606001610396565b61037461045e366004612c33565b610d74565b610374610471366004612c93565b610e0b565b610374610484366004612cff565b610fb6565b6104a9610497366004612b91565b60096020526000908152604090205481565b604051908152602001610396565b6103746104c5366004612d46565b610fdd565b6104dd6104d8366004612d82565b61100e565b604080516001600160a01b039093168352602083019190915201610396565b61037461050a366004612da4565b611096565b61037461051d366004612dd0565b611139565b610374610530366004612bc6565b61135f565b610374610543366004612bc6565b611397565b610374610556366004612d46565b61139f565b6103746113ba565b610576610571366004612b91565b6113d7565b6040516103969190612e2c565b6104a960085481565b6104dd61059a366004612d82565b61145f565b6103ed6105ad366004612b91565b6001602052600090815260409020546001600160a01b031681565b6103746105d6366004612e84565b6114a5565b61038a6105e9366004612b91565b61166d565b6103746105fc366004612ef8565b61168c565b6103ed61060f366004612b91565b6116b6565b6103cd611716565b6104a961062a366004612ef8565b611725565b6103746117ab565b6104a9610645366004612d82565b600260209081526000928352604080842090915290825290205481565b610374610670366004612bc6565b6117bf565b6000546001600160a01b03166103ed565b610374610694366004612ef8565b6117f5565b6103cd6118d3565b61038a6106af366004612bc6565b600560209081526000928352604080842090915290825290205460ff1681565b600c546103ed906001600160a01b031681565b6105766118e2565b610374611957565b610374610700366004612f13565b611974565b610374610713366004612da4565b61197f565b610374610726366004612b91565b6119b3565b610374610739366004612f3d565b611a08565b61037461074c366004612d82565b611a40565b6103cd61075f366004612b91565b611aa1565b610374610772366004612fb9565b611b6c565b61078a610785366004612b91565b611d8d565b604080519788526020880196909652948601939093526060850191909152608084015260a0830152151560c082015260e001610396565b60075461038a90600160a01b900460ff1681565b61038a6107e336600461300a565b6001600160a01b03918216600090815260126020908152604080832093909416825291909152205460ff1690565b610374611ddf565b610374610827366004612ef8565b611df6565b610374611e6f565b6014546103ed906001600160a01b031681565b6007546103ed906001600160a01b031681565b610862611e86565b6000928352600260209081526040808520938552929052912055565b60006001600160e01b031982166352210df160e11b14806108a357506108a382611ee0565b92915050565b6108b1611e86565b80516108c4906013906020840190612906565b507fbabd00c52f3ac8b66511ad0c5d9680f0417ad32bf6c8fede4cb2d45820353bc5816040516108f49190612b7e565b60405180910390a150565b6060600d805461090e90613034565b80601f016020809104026020016040519081016040528092919081815260200182805461093a90613034565b80156109875780601f1061095c57610100808354040283529160200191610987565b820191906000526020600020905b81548152906001019060200180831161096a57829003601f168201915b5050505050905090565b600061099c82611f3b565b506000908152601160205260409020546001600160a01b031690565b60006109c3826116b6565b9050806001600160a01b0316836001600160a01b03161415610a365760405162461bcd60e51b815260206004820152602160248201527f4552433732313a20617070726f76616c20746f2063757272656e74206f776e656044820152603960f91b60648201526084015b60405180910390fd5b336001600160a01b0382161480610a525750610a5281336107e3565b610ac45760405162461bcd60e51b815260206004820152603e60248201527f4552433732313a20617070726f76652063616c6c6572206973206e6f7420746f60448201527f6b656e206f776e6572206e6f7220617070726f76656420666f7220616c6c00006064820152608401610a2d565b610ace8383611f9a565b505050565b60008060008060068581548110610aec57610aec61306f565b60009182526020808320600560079093020191909101548783526002825260408084208a855290925291205490915060019015610b405760008681526002602090815260408083208a845290915290205491505b60068681548110610b5357610b5361306f565b600091825260209091206006600790920201015460ff168015610b9a57506001600160a01b038816600090815260056020908152604080832089845290915290205460ff16155b80610be057506000878152600160205260409020546001600160a01b031615801590610be057506000878152600160205260409020546001600160a01b03898116911614155b80610c3b575060068681548110610bf957610bf961306f565b906000526020600020906007020160010154421080610c3b575060068681548110610c2657610c2661306f565b90600052602060002090600702016002015442115b80610cc9575060068681548110610c5457610c5461306f565b906000526020600020906007020160030154600014158015610cc9575060068681548110610c8457610c8461306f565b90600052602060002090600702016003015460068781548110610ca957610ca961306f565b9060005260206000209060070201600401546001610cc7919061309b565b115b80610d50575060068681548110610ce257610ce261306f565b906000526020600020906007020160000154600014158015610d50575060068681548110610d1257610d1261306f565b600091825260208083206007909202909101548883526003825260408084206001600160a01b038d168552909252912054610d4e90600161309b565b115b15610d59575060005b60075491986001600160a01b03909216975095509350505050565b6014546001600160a01b03163314610d9e5760405162461bcd60e51b8152600401610a2d906130b3565b60145460ff600160a01b9091041615158115151415610ded5760405162461bcd60e51b815260206004820152600b60248201526a105b1c9958591e481cd95d60aa1b6044820152606401610a2d565b60148054911515600160a01b0260ff60a01b19909216919091179055565b610e13611e86565b828114610e565760405162461bcd60e51b8152602060048201526011602482015270082e4e4c2f2e640c8dedce840dac2e8c6d607b1b6044820152606401610a2d565b6000805b82811015610e9a57838382818110610e7457610e7461306f565b9050602002013582610e86919061309b565b915080610e92816130d9565b915050610e5a565b50612710811115610ee45760405162461bcd60e51b81526020600482015260146024820152730546f74616c20736861726573203e2031303030360641b6044820152606401610a2d565b610ef0600a600061298a565b60005b84811015610fae57600a6040518060400160405280888885818110610f1a57610f1a61306f565b9050602002016020810190610f2f9190612ef8565b6001600160a01b03168152602001868685818110610f4f57610f4f61306f565b60209081029290920135909252835460018082018655600095865294829020845160029092020180546001600160a01b0319166001600160a01b0390921691909117815592015191909201555080610fa6816130d9565b915050610ef3565b505050505050565b610fbe611e86565b60008281526015602090815260409091208251610ace92840190612906565b610fe73382612008565b6110035760405162461bcd60e51b8152600401610a2d906130f4565b610ace838383612087565b6000806000600760149054906101000a900460ff161561107a5760008581526009602052604090205461105d576127106008548561104c9190613142565b6110569190613177565b905061107e565b6000858152600960205260409020546127109061104c9086613142565b5060005b600c546001600160a01b0316925090505b9250929050565b61109e611e86565b600682815481106110b1576110b161306f565b600091825260209091206006600790920201015460ff1661110b5760405162461bcd60e51b81526020600482015260146024820152734576656e74206973206e6f74207072697661746560601b6044820152606401610a2d565b6001600160a01b0316600090815260056020908152604080832093835292905220805460ff19166001179055565b611141611e86565b8385106111815760405162461bcd60e51b815260206004820152600e60248201526d57726f6e672074696d656c696e6560901b6044820152606401610a2d565b42600688815481106111955761119561306f565b906000526020600020906007020160010154116111f45760405162461bcd60e51b815260206004820152601c60248201527f4576656e7420697320616c726561647920696e2070726f6772657373000000006044820152606401610a2d565b85600688815481106112085761120861306f565b90600052602060002090600702016000018190555084600688815481106112315761123161306f565b906000526020600020906007020160010181905550836006888154811061125a5761125a61306f565b90600052602060002090600702016002018190555082600688815481106112835761128361306f565b90600052602060002090600702016003018190555081600688815481106112ac576112ac61306f565b90600052602060002090600702016005018190555080600688815481106112d5576112d561306f565b600091825260209182902060079190910201600601805460ff191692151592909217909155604080518981529182018890528101869052606081018590526080810184905260a0810183905281151560c08201527f448750bb861f014a5328a4d7ade11d63cc5e26ffa05ba1ff43a12d6d6aa2da759060e00160405180910390a150505050505050565b6014546001600160a01b031633146113895760405162461bcd60e51b8152600401610a2d906130b3565b611393828261222e565b5050565b611389611e86565b610ace83838360405180602001604052806000815250611a08565b6113c2611e86565b6007805460ff60a81b1916600160a81b179055565b6060600b6000838152602001908152602001600020805480602002602001604051908101604052809291908181526020016000905b82821015611454576000848152602090819020604080518082019091526002850290910180546001600160a01b0316825260019081015482840152908352909201910161140c565b505050509050919050565b600b602052816000526040600020818154811061147b57600080fd5b6000918252602090912060029091020180546001909101546001600160a01b039091169250905082565b6114ad611e86565b8382146114f05760405162461bcd60e51b8152602060048201526011602482015270082e4e4c2f2e640c8dedce840dac2e8c6d607b1b6044820152606401610a2d565b6000805b838110156115345784848281811061150e5761150e61306f565b9050602002013582611520919061309b565b91508061152c816130d9565b9150506114f4565b5061271081111561157e5760405162461bcd60e51b81526020600482015260146024820152730546f74616c20736861726573203e2031303030360641b6044820152606401610a2d565b6000828152600b602052604081206115959161298a565b60005b8581101561166457600b600084815260200190815260200160002060405180604001604052808989858181106115d0576115d061306f565b90506020020160208101906115e59190612ef8565b6001600160a01b031681526020018787858181106116055761160561306f565b60209081029290920135909252835460018082018655600095865294829020845160029092020180546001600160a01b0319166001600160a01b039092169190911781559201519190920155508061165c816130d9565b915050611598565b50505050505050565b6000818152600f60205260408120546001600160a01b031615156108a3565b611694611e86565b600780546001600160a01b0319166001600160a01b0392909216919091179055565b6000818152600f60205260408120546001600160a01b0316806108a35760405162461bcd60e51b8152602060048201526018602482015277115490cdcc8c4e881a5b9d985b1a59081d1bdad95b88125160421b6044820152606401610a2d565b6060611720612248565b905090565b60006001600160a01b03821661178f5760405162461bcd60e51b815260206004820152602960248201527f4552433732313a2061646472657373207a65726f206973206e6f7420612076616044820152683634b21037bbb732b960b91b6064820152608401610a2d565b506001600160a01b031660009081526010602052604090205490565b6117b3611e86565b6117bd6000612257565b565b6117c7611e86565b600090815260016020526040902080546001600160a01b0319166001600160a01b0392909216919091179055565b6117fd611e86565b6001600160a01b0381166118485760405162461bcd60e51b815260206004820152601260248201527143616e74207365742030206164647265737360701b6044820152606401610a2d565b600c546001600160a01b03828116911614156118b15760405162461bcd60e51b815260206004820152602260248201527f54686973206164647265737320697320616c726561647920612072656365697660448201526132b960f11b6064820152608401610a2d565b600c80546001600160a01b0319166001600160a01b0392909216919091179055565b6060600e805461090e90613034565b6060600a805480602002602001604051908101604052809291908181526020016000905b8282101561194e576000848152602090819020604080518082019091526002850290910180546001600160a01b03168252600190810154828401529083529092019101611906565b50505050905090565b61195f611e86565b6007805460ff60a01b1916600160a01b179055565b6113933383836122a7565b6014546001600160a01b031633146119a95760405162461bcd60e51b8152600401610a2d906130b3565b6113938282612376565b6119bb611e86565b612328811115611a035760405162461bcd60e51b8152602060048201526013602482015272526f79616c7479206973206f7665722039302560681b6044820152606401610a2d565b600855565b611a123383612008565b611a2e5760405162461bcd60e51b8152600401610a2d906130f4565b611a3a84848484612419565b50505050565b611a48611e86565b612328821115611a905760405162461bcd60e51b8152602060048201526013602482015272526f79616c7479206973206f7665722039302560681b6044820152606401610a2d565b600090815260096020526040902055565b6000818152601560205260409020805460609190611abe90613034565b159050611b635760008281526015602052604090208054611ade90613034565b80601f0160208091040260200160405190810160405280929190818152602001828054611b0a90613034565b8015611b575780601f10611b2c57610100808354040283529160200191611b57565b820191906000526020600020905b815481529060010190602001808311611b3a57829003601f168201915b50505050509050919050565b6108a38261244c565b611b74611e86565b838510611bb45760405162461bcd60e51b815260206004820152600e60248201526d57726f6e672074696d656c696e6560901b6044820152606401610a2d565b6040805160e081018252878152602081018781529181018681526060820186815260006080840181815260a0850188815287151560c0870190815260068054600180820183559582905297517ff652222313e28459528d920b65115c16c04f3efc82aaedc97be59f3f377c0d3f60079099029889015597517ff652222313e28459528d920b65115c16c04f3efc82aaedc97be59f3f377c0d4088015594517ff652222313e28459528d920b65115c16c04f3efc82aaedc97be59f3f377c0d4187015592517ff652222313e28459528d920b65115c16c04f3efc82aaedc97be59f3f377c0d42860155517ff652222313e28459528d920b65115c16c04f3efc82aaedc97be59f3f377c0d4385015590517ff652222313e28459528d920b65115c16c04f3efc82aaedc97be59f3f377c0d4484015590517ff652222313e28459528d920b65115c16c04f3efc82aaedc97be59f3f377c0d45909201805460ff19169215159290921790915590547f371687a1fd778649c94dacff2bded143ac95a75613c132fb9de37f2de739fa3191611d4a9161318b565b60408051918252602082018990528101879052606081018690526080810185905260a0810184905282151560c082015260e00160405180910390a1505050505050565b60068181548110611d9d57600080fd5b60009182526020909120600790910201805460018201546002830154600384015460048501546005860154600690960154949650929491939092919060ff1687565b611de7611e86565b6007805460ff60a01b19169055565b611dfe611e86565b6001600160a01b038116611e635760405162461bcd60e51b815260206004820152602660248201527f4f776e61626c653a206e6577206f776e657220697320746865207a65726f206160448201526564647265737360d01b6064820152608401610a2d565b611e6c81612257565b50565b611e77611e86565b6007805460ff60a81b19169055565b6000546001600160a01b031633146117bd5760405162461bcd60e51b815260206004820181905260248201527f4f776e61626c653a2063616c6c6572206973206e6f7420746865206f776e65726044820152606401610a2d565b60006001600160e01b0319821663152a902d60e11b1480611f1157506001600160e01b0319821663f19b019960e01b145b80611f2c57506001600160e01b03198216631189900560e11b145b806108a357506108a3826124aa565b6000818152600f60205260409020546001600160a01b0316611e6c5760405162461bcd60e51b8152602060048201526018602482015277115490cdcc8c4e881a5b9d985b1a59081d1bdad95b88125160421b6044820152606401610a2d565b600081815260116020526040902080546001600160a01b0319166001600160a01b0384169081179091558190611fcf826116b6565b6001600160a01b03167f8c5be1e5ebec7d5bd14f71427d1e84f3dd0314c0f7b2291e5b200ac8c7c3b92560405160405180910390a45050565b600080612014836116b6565b9050806001600160a01b0316846001600160a01b0316148061205b57506001600160a01b0380821660009081526012602090815260408083209388168352929052205460ff165b8061207f5750836001600160a01b031661207484610991565b6001600160a01b0316145b949350505050565b826001600160a01b031661209a826116b6565b6001600160a01b0316146120fe5760405162461bcd60e51b815260206004820152602560248201527f4552433732313a207472616e736665722066726f6d20696e636f72726563742060448201526437bbb732b960d91b6064820152608401610a2d565b6001600160a01b0382166121605760405162461bcd60e51b8152602060048201526024808201527f4552433732313a207472616e7366657220746f20746865207a65726f206164646044820152637265737360e01b6064820152608401610a2d565b61216b8383836124fa565b612176600082611f9a565b6001600160a01b038316600090815260106020526040812080546001929061219f90849061318b565b90915550506001600160a01b03821660009081526010602052604081208054600192906121cd90849061309b565b90915550506000818152600f602052604080822080546001600160a01b0319166001600160a01b0386811691821790925591518493918716917fddf252ad1be2c89b69c2b068fc378daa952ba7f163c4a11628f55a4df523b3ef91a4505050565b611393828260405180602001604052806000815250612589565b60606013805461090e90613034565b600080546001600160a01b038381166001600160a01b0319831681178455604051919092169283917f8be0079c531659141344cd1fd0a4f28419497f9722a3daafe3b4186f6b6457e09190a35050565b816001600160a01b0316836001600160a01b031614156123095760405162461bcd60e51b815260206004820152601960248201527f4552433732313a20617070726f766520746f2063616c6c6572000000000000006044820152606401610a2d565b6001600160a01b03838116600081815260126020908152604080832094871680845294825291829020805460ff191686151590811790915591519182527f17307eab39ab6107e8899845ad3d59bd9653f200f220920489ca2b5937696c31910160405180910390a3505050565b600682815481106123895761238961306f565b9060005260206000209060070201600001546000146123db5760008281526003602090815260408083206001600160a01b038516845290915281208054600192906123d590849061309b565b90915550505b6001600683815481106123f0576123f061306f565b90600052602060002090600702016004016000828254612410919061309b565b90915550505050565b612424848484612087565b612430848484846125bc565b611a3a5760405162461bcd60e51b8152600401610a2d906131a2565b60606000612458612248565b9050600081511161247857604051806020016040528060008152506124a3565b80612482846126ba565b6040516020016124939291906131f4565b6040516020818303038152906040525b9392505050565b60006001600160e01b031982166380ac58cd60e01b14806124db57506001600160e01b03198216635b5e139f60e01b145b806108a357506301ffc9a760e01b6001600160e01b03198316146108a3565b601454600090600160a01b900460ff16158061251557503332145b8061252a57506014546001600160a01b031633145b905080611a3a5760405162461bcd60e51b815260206004820152602760248201527f5265737472696374656420746f2044656372797074206d61726b6574706c616360448201526665206f6e6c792160c81b6064820152608401610a2d565b61259383836127b8565b6125a060008484846125bc565b610ace5760405162461bcd60e51b8152600401610a2d906131a2565b60006001600160a01b0384163b156126af57604051630a85bd0160e11b81526001600160a01b0385169063150b7a0290612600903390899088908890600401613223565b6020604051808303816000875af192505050801561263b575060408051601f3d908101601f1916820190925261263891810190613260565b60015b612695573d808015612669576040519150601f19603f3d011682016040523d82523d6000602084013e61266e565b606091505b50805161268d5760405162461bcd60e51b8152600401610a2d906131a2565b805181602001fd5b6001600160e01b031916630a85bd0160e11b14905061207f565b506001949350505050565b6060816126de5750506040805180820190915260018152600360fc1b602082015290565b8160005b811561270857806126f2816130d9565b91506127019050600a83613177565b91506126e2565b60008167ffffffffffffffff81111561272357612723612a45565b6040519080825280601f01601f19166020018201604052801561274d576020820181803683370190505b5090505b841561207f5761276260018361318b565b915061276f600a8661327d565b61277a90603061309b565b60f81b81838151811061278f5761278f61306f565b60200101906001600160f81b031916908160001a9053506127b1600a86613177565b9450612751565b6001600160a01b03821661280e5760405162461bcd60e51b815260206004820181905260248201527f4552433732313a206d696e7420746f20746865207a65726f20616464726573736044820152606401610a2d565b6000818152600f60205260409020546001600160a01b0316156128735760405162461bcd60e51b815260206004820152601c60248201527f4552433732313a20746f6b656e20616c7265616479206d696e746564000000006044820152606401610a2d565b61287f600083836124fa565b6001600160a01b03821660009081526010602052604081208054600192906128a890849061309b565b90915550506000818152600f602052604080822080546001600160a01b0319166001600160a01b03861690811790915590518392907fddf252ad1be2c89b69c2b068fc378daa952ba7f163c4a11628f55a4df523b3ef908290a45050565b82805461291290613034565b90600052602060002090601f016020900481019282612934576000855561297a565b82601f1061294d57805160ff191683800117855561297a565b8280016001018555821561297a579182015b8281111561297a57825182559160200191906001019061295f565b506129869291506129ab565b5090565b5080546000825560020290600052602060002090810190611e6c91906129c0565b5b8082111561298657600081556001016129ac565b5b808211156129865780546001600160a01b0319168155600060018201556002016129c1565b6000806000606084860312156129fb57600080fd5b505081359360208301359350604090920135919050565b6001600160e01b031981168114611e6c57600080fd5b600060208284031215612a3a57600080fd5b81356124a381612a12565b634e487b7160e01b600052604160045260246000fd5b600067ffffffffffffffff80841115612a7657612a76612a45565b604051601f8501601f19908116603f01168101908282118183101715612a9e57612a9e612a45565b81604052809350858152868686011115612ab757600080fd5b858560208301376000602087830101525050509392505050565b600082601f830112612ae257600080fd5b6124a383833560208501612a5b565b600060208284031215612b0357600080fd5b813567ffffffffffffffff811115612b1a57600080fd5b61207f84828501612ad1565b60005b83811015612b41578181015183820152602001612b29565b83811115611a3a5750506000910152565b60008151808452612b6a816020860160208601612b26565b601f01601f19169290920160200192915050565b6020815260006124a36020830184612b52565b600060208284031215612ba357600080fd5b5035919050565b80356001600160a01b0381168114612bc157600080fd5b919050565b60008060408385031215612bd957600080fd5b612be283612baa565b946020939093013593505050565b600080600060608486031215612c0557600080fd5b612c0e84612baa565b95602085013595506040909401359392505050565b80358015158114612bc157600080fd5b600060208284031215612c4557600080fd5b6124a382612c23565b60008083601f840112612c6057600080fd5b50813567ffffffffffffffff811115612c7857600080fd5b6020830191508360208260051b850101111561108f57600080fd5b60008060008060408587031215612ca957600080fd5b843567ffffffffffffffff80821115612cc157600080fd5b612ccd88838901612c4e565b90965094506020870135915080821115612ce657600080fd5b50612cf387828801612c4e565b95989497509550505050565b60008060408385031215612d1257600080fd5b82359150602083013567ffffffffffffffff811115612d3057600080fd5b612d3c85828601612ad1565b9150509250929050565b600080600060608486031215612d5b57600080fd5b612d6484612baa565b9250612d7260208501612baa565b9150604084013590509250925092565b60008060408385031215612d9557600080fd5b50508035926020909101359150565b60008060408385031215612db757600080fd5b82359150612dc760208401612baa565b90509250929050565b600080600080600080600060e0888a031215612deb57600080fd5b873596506020880135955060408801359450606088013593506080880135925060a08801359150612e1e60c08901612c23565b905092959891949750929550565b602080825282518282018190526000919060409081850190868401855b82811015612e7757815180516001600160a01b03168552860151868501529284019290850190600101612e49565b5091979650505050505050565b600080600080600060608688031215612e9c57600080fd5b853567ffffffffffffffff80821115612eb457600080fd5b612ec089838a01612c4e565b90975095506020880135915080821115612ed957600080fd5b50612ee688828901612c4e565b96999598509660400135949350505050565b600060208284031215612f0a57600080fd5b6124a382612baa565b60008060408385031215612f2657600080fd5b612f2f83612baa565b9150612dc760208401612c23565b60008060008060808587031215612f5357600080fd5b612f5c85612baa565b9350612f6a60208601612baa565b925060408501359150606085013567ffffffffffffffff811115612f8d57600080fd5b8501601f81018713612f9e57600080fd5b612fad87823560208401612a5b565b91505092959194509250565b60008060008060008060c08789031215612fd257600080fd5b8635955060208701359450604087013593506060870135925060808701359150612ffe60a08801612c23565b90509295509295509295565b6000806040838503121561301d57600080fd5b61302683612baa565b9150612dc760208401612baa565b600181811c9082168061304857607f821691505b6020821081141561306957634e487b7160e01b600052602260045260246000fd5b50919050565b634e487b7160e01b600052603260045260246000fd5b634e487b7160e01b600052601160045260246000fd5b600082198211156130ae576130ae613085565b500190565b6020808252600c908201526b155b985d5d1a1bdc9a5e995960a21b604082015260600190565b60006000198214156130ed576130ed613085565b5060010190565b6020808252602e908201527f4552433732313a2063616c6c6572206973206e6f7420746f6b656e206f776e6560408201526d1c881b9bdc88185c1c1c9bdd995960921b606082015260800190565b600081600019048311821515161561315c5761315c613085565b500290565b634e487b7160e01b600052601260045260246000fd5b60008261318657613186613161565b500490565b60008282101561319d5761319d613085565b500390565b60208082526032908201527f4552433732313a207472616e7366657220746f206e6f6e20455243373231526560408201527131b2b4bb32b91034b6b83632b6b2b73a32b960711b606082015260800190565b60008351613206818460208801612b26565b83519083019061321a818360208801612b26565b01949350505050565b6001600160a01b038581168252841660208201526040810183905260806060820181905260009061325690830184612b52565b9695505050505050565b60006020828403121561327257600080fd5b81516124a381612a12565b60008261328c5761328c613161565b50069056fea26469706673582212203d282e529f1f83395f84189790d4223af4a60f4ecdbfe6320ed400a1cfc2ec2d64736f6c634300080a0033",
  "linkReferences": {},
  "deployedLinkReferences": {}
}